:020000040800F2
:1000000080060020C50100083D14000835140008D2
:100010003914000885130008491500080000000085
:100020000000000000000000000000006B14000849
:100030008913000800000000691400086D1400080E
:10004000DF010008DF010008DF010008DF01000810
:10005000DF010008DF010008DF010008DF01000800
:10006000DF010008DF0100088D130008DF01000830
:10007000DF010008DF010008DF010008DF010008E0
:10008000DF010008DF010008DF010008DF010008D0
:10009000DF010008DF010008DF010008F11300089C
:1000A000DF010008DF010008DF010008DF010008B0
:1000B000DF010008DF010008DF010008DF010008A0
:1000C000DF010008DF010008DF010008DF01000890
:1000D000DF010008DF010008DF010008DF01000880
:1000E000DF010008DF010008DF0100080000000058
:1000F0000000000000000000000000000000000000
:10010000DF01000800F002F800F04DF80AA090E8C6
:10011000000C82448344AAF10107DA4501D100F0C2
:1001200042F8AFF2090EBAE80F0013F0010F18BF42
:10013000FB1A43F0010318478C280000AC2800008C
:10014000103A24BF78C878C1FAD8520724BF30C803
:1001500030C144BF04680C607047000000230024D5
:1001600000250026103A28BF78C1FBD8520728BFC7
:1001700030C148BF0B607047662902F0D7836429FD
:1001800000F05A80752900F05780002070471FB595
:1001900000F0CEFB04000020002101F09FFFE06092
:1001A0001FBD10B510BD00F0BFFC1146FFF7EFFFFB
:1001B00001F0D8FB00F0DDFC03B4FFF7F2FF03BC55
:1001C00000F01EFD0948804709480047FEE7FEE7AA
:1001D000FEE7FEE7FEE7FEE7FEE7FEE7FEE7FEE7F7
:1001E00004480549054A064B70470000751400088D
:1001F0000501000880000020800600208002002009
:10020000800200200FB41CB50C0007AA009001D09A
:100210002044401E074B7B4469460190069800F03D
:1002200066FB002C03D06946002000F073FB1CBC69
:100230005DF814FB050700002DE9F0410646002497
:1002400010687529314616A510D0AFF3008000283C
:1002500002DA404213A507E031688A0701D512A5EA
:1002600002E0490704D511A5012401E0AFF30080A5
:1002700000210A2206F1240709E0B0FBF2FCB0FBE2
:10028000F2F302FB1C00303078541846491C002859
:10029000F3D123462A463046BDE8F04100F0BBB812
:1002A000000000002D0000002B00000020000000D6
:1002B0002DE9F0474FF0000A89460446C0F820A017
:1002C0002046E1688847002876D0252806D0D4E962
:1002D00001219047206A401C2062F1E7E168204636
:1002E00000268847C4F81CA005460027C4F818A0BB
:1002F0002A2D09D0284601F03DF938B304EB8708D0
:10030000303DC8F8185019E059F8041B204604EB9A
:1003100087029161E1688847012F054618D1E0699D
:10032000002820DA26F020061DE0D8F8180000EB9F
:10033000800005EB40003038C8F818002046E1681E
:100340008847054601F016F90028EED1012F0AD0A2
:100350002E2D08D12046E16888477F1C0546022FD4
:1003600046F02006C4DBA069002803DA404246F0CC
:100370000106A061F00701D026F010066C2D0AD00E
:10038000682D08D04C2D39D06A2D35D0742D35D03C
:100390007A2D33D016E0E1682F4620468847B842D0
:1003A00005460AD16C2F27D04FF48060E1680643E0
:1003B00020468847054605E027E06C2F1AD04FF409
:1003C000807006430DB3A5F14100192802D82035ED
:1003D00046F400664A462946204626604E46FFF708
:1003E000CBFE80B101280BD0F61D26F0070000F1EE
:1003F000080965E74020E4E78020D7E70020D5E73B
:1004000006F104095CE7284661E7206ABDE8F08749
:100410007047704770472DE9F0470D469946924660
:10042000044600F124080168880604D5E06921F03B
:100430001001216000E00120A84201DD471B00E01F
:100440000027A1697A1902EB0900081AA061207837
:10045000C00602D42046AFF30080002608E0D4E9AD
:1004600001211AF806009047206A401C761C206281
:100470004E45F4DB2078C0060AD52046AFF3008055
:1004800006E0D4E9012130209047206A401C206218
:10049000381EA7F10107F4DC07E0D4E9012118F8C0
:1004A00005009047206A401C2062281EA5F1010526
:1004B000F3DC2046AFF300802078000602D502204E
:1004C000BDE8F0870120FBE770472DE9FF4F0C46A0
:1004D0001E464FF0FF378BB0D2E90001DDF8608097
:1004E0000A908A46C1F30A5505B93D4600210846DF
:1004F0004FF00000BAF1000F00F4400005DA00EB05
:1005000080004FF4400101EA50004FEA9059B9F1E0
:10051000010F00DDB9460A9850EA4A000ED044F6B1
:100520001050A5F2FF3545432F14B8F1000F1ED02F
:100530007542291E1EDDC9F100021CE0B8F1010F51
:100540004FF0000001D0302103E0F24305E02154D8
:10055000401CB042FBDB30460022002121540B99A5
:10056000C1F80880C1E900200FB0BDE8F08FBD1BC5
:100570006D1CDEE74A4600DA694206A800F062FA1E
:1005800006AB93E8070003AB83E8070050460A99DF
:1005900000F03DFB8DE80700A0F500501F380090EB
:1005A0000398002D09DD42F21F014A46084403A9C1
:1005B0000390684600F09CFD08E0A0F500504A4614
:1005C0001F3803A90390684600F0A6FD8DE80700D8
:1005D0000004000C03D04FF0FF30410800E010464B
:1005E000B8F1000F03D00022009215461EE0751EE0
:1005F00005D400F0A1F9303262556D1EF9D5B3462D
:100600000122084302D000227F1C04E02078302819
:1006100001D100227F1E002A099786D01DE0112DEE
:1006200007DA00F089F9303262556D1C50EA010298
:10063000F5D1084302D00098C8B10EE00021681E31
:1006400005E0235C625C63542254401E491C8142D5
:10065000F7DBAB46A81B401E0990002004F80B00F6
:100660000B98099AC0F80880C0E9002B7CE7112696
:100670004FF0000859E72DE9F04F88460446D21D97
:1006800022F0070191B0D1E90001CDE90A0100F0A3
:100690005DFF02460B98C00F01D02D2007E02068B7
:1006A000810701D52B2002E0202101EAC000032AA6
:1006B000099001D0072A05DB03464146204600F099
:1006C00081F90BE12078800601D5E06900E0062081
:1006D000B8F1650F814606D0B8F1660F18D0B8F1B1
:1006E000670F70D131E00020B9F1110F009001DBEC
:1006F000112301E009F101030AAA01A90CA8FFF7DF
:10070000E4FEDDE90C70002609F10105834647E0AF
:1007100001204B4600904FF000470AAA01A90CA8FF
:10072000FFF7D3FEDDE90DB00C995D46002610B948
:1007300009F101000D18B9EB050003D4C0F1FF3633
:1007400009F10105A5EB09002BE0B9F1010F01DA70
:100750004FF001090020B9F1110F0090484601DD6A
:10076000112300E003460AAA01A90CA8FFF7ADFE79
:10077000DDE90C704D4600268346207800070AD438
:10078000AB4500DA5D4601A8012D04DD411911F8E1
:10079000011C302907D04F4502DA17F1040F04DAA3
:1007A000012082460FE06D1EEEE7002F02DCED1BFC
:1007B0003E4403E0781CA84200DD7D1CB81B00F11C
:1007C000010A4FF000472078000703D4AA4501DB57
:1007D0004FF0FF3A0021B7F1004F0DF143088DF8BB
:1007E000431024D002202B23002F01DA7F422D2337
:1007F0000A21021EA0F1010000DC5FB197FBF1FCB1
:1008000097FBF1F201FB1C7C17460CF1300C08F849
:1008100001CDEEE7A8F1010003702188090501D59B
:10082000452100E06521A0F1010800F8011C0998AC
:100830000FA9A1EB0807FF1D00B10120411901EB31
:10084000EA70A1693844081A401EA0612078C006E9
:1008500002D42046AFF30080099828B1D4E90121E1
:100860009047206A401C20622078C00622D520468E
:10087000AFF300801EE0002E04DBB34502DD01A8CB
:10088000805D00E03020D4E901219047206A401CBF
:100890002062761CAAF101005FEA000A0AD100F08A
:1008A00047F8C0680168405CD4E901219047206A9C
:1008B000401C2062281EA5F10105DCDC07E0D4E91C
:1008C000012118F8010B9047206A401C2062381E55
:1008D000A7F10107F3DC2046AFF30080032011B03D
:1008E00043E6000001694A1C02610878704700B5C0
:1008F0008FB0CDE901310021059105497944CDE959
:10090000031011466846FFF7D3FC0FB000BD00008E
:10091000E5FFFFFF0A6802F8010B0A607047D1E9A2
:1009200000239A4202D2531C0B60107070470000E3
:10093000004870473C00002030B5B0F10A024FEA91
:10094000900E71F100034EEA817EB0EB0E0061EB78
:1009500091014FEA101E4EEA017E10EB0E0041EBB2
:1009600011114FEA102E4EEA016E10EB0E0041EB12
:1009700011214FEA104E4EEA014E10EB0E0041EBF2
:100980001141401841F100014FEAD00040EA4170A6
:100990004FEAD10110EB80054FEA810444EA9074DC
:1009A00044EB01046D1944EB0404521BA3414FF0C6
:1009B000000348BF0A3200D530BD401C41F10001A0
:1009C00030BD00002DE9F0411F46044603260168B2
:1009D000072A01F4006004DB08B116A505E016A59E
:1009E00003E008B115A500E015A521F01000206076
:1009F000A069C01EA0610FB1401EA0612046AFF3E8
:100A000000804FB1D4E9012138469047206A401C4C
:100A10002062C01C206206E0206AFAE7D4E90121C6
:100A200015F8010B9047761EF8D22046AFF30080F0
:100A3000BDE8F0814E414E006E616E00494E4600A9
:100A4000696E66002DE9F047814616468AB0334844
:100A500078440DC88DE80D0030487844801C03AC04
:100A60000DC884E80D0041F69B300844372190FB07
:100A7000F1F290FBF1F5A5F1800501FB12041B3C9E
:100A800002D56442012000E00020DFF890A08046FB
:100A90000027FA44AAF1BE0A0DE0E00709D0324669
:100AA000684607EB47010AEB810100F035FB8DE852
:100AB000070064107F1C002CEFD1184F7F44AC3F1F
:100AC00018E0E80714D007EB04100DF1180A90E8BD
:100AD0000E008AE80E00C068F04201D19819089013
:100AE000324606A903A800F017FB03AB83E8070012
:100AF0006D10641C002DE4D132466946B8F1000F38
:100B000003A802D000F0F4FA01E000F005FBC9E907
:100B10000001C9F808200AB0BDE8F087581F00009E
:100B2000004870471C0000207546FFF7F9FFAE46ED
:100B300005006946534620F00700854618B020B5E9
:100B4000FFF74EFBBDE820404FF000064FF00007D6
:100B50004FF000084FF0000B21F00701AC46ACE865
:100B6000C009ACE8C009ACE8C009ACE8C0098D46D2
:100B700070470446AFF300802046FFF71DFB0000DE
:100B80004FF0013C50F8042B51F8043B9A4221D11C
:100B9000A2EB0C03934313EACC1317D150F8042BA8
:100BA00051F8043B9A4215D1A2EB0C03934313EA8C
:100BB000CC130BD150F8042B51F8043B9A4209D1C5
:100BC000A2EB0C03934313EACC13DBD04FF00000ED
:100BD000704700BFD01A01BAB1FA81F101F01801D3
:100BE00022FA01F0CB40C1F12001DBB2C0B2C01A41
:100BF0002CFA01F3D11A914311EAC311E6D17047DF
:100C000001491820ABBEFEE72600020070475FEAEC
:100C1000400C08BF91F0000F4FEA8C234FEAC1222D
:100C200043EA51514FEA1C5018BF00F5F0404FEA1B
:100C3000300018BF41F000415FEA6C5C00F0298091
:100C4000BCF1FF3F08BF40F080407047130C06BF67
:100C500012044FF0100C4FF0000C130E04BF1202E0
:100C60000CF1080C130F04BF12010CF1040C930FCC
:100C700004BF92000CF1020CD30F04BF52000CF120
:100C8000010C11464FF00002A0F11F00A0EB0C0078
:100C9000704711F0004F08BF704731F000413FF43A
:100CA000D5AF0B0C06BF09044FF0100C4FF0000C31
:100CB0000B0E04BF09020CF1080C0B0F04BF090155
:100CC0000CF1040C8B0F04BF89000CF1020CCB0F4C
:100CD00004BF49000CF1010CCCF12003A0EB0C0087
:100CE00022FA03F302FA0CF241EA030100F10100D7
:100CF000704720F07F4C80EA030023F07F47ACEB85
:100D0000070303F57C5300F0004003F1FF032DE9D6
:100D100080494FEA154B09B44FEA144325EA0B4EBC
:100D200024EA03480FF2042606EB132749083E780D
:100D30005FEA320203FB0667C7F5000707FB06F60A
:100D40004FEA54374FEAD64606F1020607FB066C17
:100D5000CCF1005C4FEA1C472CEA074C07FB06F479
:100D60000CFB06F504EB15464FEA961634BF00203F
:100D70004FF000404FEAD13706FB07FC4FEA1C4C0E
:100D80000CFB0BF7D21B03FB0CF761EB07010CFB11
:100D90000EF7B0EB074072EB17420CFB08F734BFBD
:100DA000A2EB0742B2EB074261EB17414FEA0C445A
:100DB0004FEA910706FB07FC4FEA1C4C0CFB0BF7B4
:100DC000B0EBC74072EB573203FB0CF734BFA2EB1A
:100DD000C742B2EBC74261EB57310CFB0EF7B0EBE9
:100DE000C70072EB57720CFB08F734BFA2EBC702C7
:100DF000B2EBC70261EB5771039F4FEA816141EA91
:100E0000921104EBCC044FEAD1374FEA826206FB21
:100E100007FC42EA90124FEA80604FEA1C4C0CFB40
:100E20000BF7D21B03FB0CF761EB07010CFB0EF772
:100E3000B0EB074072EB17420CFB08F734BFA2EB94
:100E40000742B2EB074261EB17414FEA8C554FEA7C
:100E5000910704EB9C2406FB07FC4FEA1C4C0CFB9F
:100E60000BF7B0EBC74072EB573203FB0CF734BF04
:100E7000A2EBC742B2EBC74261EB57310CFB0EF756
:100E8000B0EBC70072EB57720CFB08F734BFA2EB54
:100E9000C702B2EBC70261EB577115EB4C254FEA65
:100EA000816141EA92114FEA82624FEAD13742EA08
:100EB000901206FB07FC44F100044FEA80604FEA01
:100EC0001C4C0CFB0BF7D21B03FB0CF761EB07016F
:100ED0000CFB0EF7B0EB074072EB17420CFB08F768
:100EE00034BFA2EB0742B2EB074261EB174115EBAF
:100EF0001C154FEA813141EA92414FEA823242EABF
:100F000090424FEA80304FEA0C7644F1000448EA00
:100F100003434EEA0B484FF0000EB2EB080C71EBA6
:100F2000030724BF624639464EEB0E0E4FF0000B0E
:100F30000018524149414BEB0B0BB2EB080C71EB23
:100F400003077BF1000B24BF624639464EEB0E0EC1
:100F50004FF0000B0018524149414BEB0B0BB2EB29
:100F6000080C71EB03077BF1000B24BF6246394686
:100F70004EEB0E0E51EA020718BF46F0010616EBC3
:100F80000E7655F1000254F1000103D5BDE8890148
:100F9000BDE80088BDE88901BDE80048B6195241A6
:100FA00041EB0101A3F10103704780807F7E7D7CCE
:100FB0007B7A7978777676757473727171706F6EEB
:100FC0006E6D6C6C6B6A6A69686867666665646496
:100FD000636362616160605F5F5E5E5D5D5C5C5B20
:100FE0005B5A5A595958585757565655555554548F
:100FF000535352525251515050504F4F4F4E4E4DED
:101000004D4D4C4C4C4B4B4B4A4A4A494949484838
:101010004847474747464646454545444444444378
:1010200043434342424242414141002B26D4770090
:1010300021D01CB54FEA370703B44FF010004FF032
:1010400010014FF000000FBCBDE810400BF1010B88
:10105000BBF1010F08BF5FEA170722BF12F10102BF
:1010600011F101014FF0004143F1000300F0004095
:1010700043EA00007047F9D35708DAE746EA064624
:1010800013F1400F4FEA16461FDD13F1200FDFBFAB
:1010900016430A46002120335B42C8D0C3F1200723
:1010A00046EA064602FA07F74FEA164646EA0706F8
:1010B000C3F1200722FA03F201FA07F721FA03F13C
:1010C0004FF0000342EA0702B1E746EA020646EAA9
:1010D00006464FEA164646EA0106BCBF46EA064601
:1010E000360C4FF000034FF000024FF000019EE776
:1010F0002DE9C048934630B491E8380007C831EA7A
:10110000400C48BF34EA430C03D5FFF7F2FDFFF76C
:101110008CFFF0BCBDE800882DE9C048934630B490
:1011200091E8380007C810F0804F08BF13F0804FD7
:1011300003D100F005F8FFF778FFF0BCBDE80088A8
:1011400020F07F4780EA030023F07F4C07EB0C037D
:10115000A3F57C5300F00040A3F1FE0392F0000FD2
:1011600000F0B38095F0000F00F077802DE9014981
:101170004FEA11404FEA144621EA004800FB06FC02
:1011800024EA064708FB06F607FB08F800FB07F70A
:1011900018EB06484CEB164C4FEA124B18EB07487D
:1011A0004FEA15464CEB174022EA0B4E0BFB06FCB0
:1011B00025EA06470EFB06F607FB0EFE0BFB07F7BC
:1011C0001EEB064E4CEB164C4FF000061EEB074E86
:1011D0004CEB174B18EB0B0840F1000018EB0E0B13
:1011E00058EB000840F100008F1A4FF000013CBF9F
:1011F000C943661B14BFB5EB040C00213CBFC943B7
:10120000F61B4FEA17444EEA8E0E27EA04454FEAD2
:101210001C4704FB07622CEA074C05FB07F70CFB95
:1012200005F604FB0CFC16EB074642EB174216EBE7
:101230000C4642EB1C421BEB060658EB02024141F6
:1012400046EA9E0601D5BDE80189B619524141EB37
:101250000101A3F10103BDE801894FEA14454FEAFA
:10126000114724EA054621EA074C05FB07F406FB73
:1012700007F70CFB06F105FB0CFC11EB074144EBF7
:1012800017444FEA124711EB0C4144EB1C4422EA8D
:10129000074C05FB07F206FB07F70CFB06F605FB00
:1012A0000CFC16EB074642EB174216EB0C4642EBE2
:1012B0001C456A1854F1000148BF7047B6195241E5
:1012C00041EB0101A3F10103704795F0000F37D006
:1012D0004FEA11424FEA144721EA024624EA074C3A
:1012E00002FB07F106FB07F70CFB06F402FB0CFC04
:1012F00014EB074441EB17414FEA154714EB0C443C
:1013000041EB1C4125EA074C02FB07F506FB07F7FA
:101310000CFB06F602FB0CFC16EB074645EB1745EB
:1013200016EB0C4645EB1C42121951F1000148BF67
:101330007047B619524141EB0101A3F10103704717
:101340004FEA14454FEA114724EA054621EA074CC3
:1013500005FB07F106FB07F70CFB06F24FF0000652
:1013600005FB0CFC12EB074241EB174112EB0C4260
:1013700051EB1C4148BF7047921841EB0101A3F1AA
:101380000103704700BFFEE77047000010B5102052
:1013900000F03CFA10B3124800F05EFD044611481C
:1013A000007890B110480068844205D30E48006868
:1013B000201A0E49086008E00B4800684FF6FF71DC
:1013C000081A401C204409490860074804600120AD
:1013D00004490870102000F013FA00BF10BD00008F
:1013E000000400400C000020040000200800002041
:1013F00010B5202000F00AFA98B12021094800F029
:101400006BFA28B10120084908700849087005E006
:10141000002005490870012005490870202000F0CF
:10142000EFF910BD000C0140000000200100002079
:101430000200002000BFFEE700BFFEE7704700008B
:1014400010B5002807DA0A07140E054A00F00F034A
:101450001B1FD45403E00A07130E024A135410BD95
:1014600018ED00E000E400E07047704710B500F0B0
:10147000A1F910BD08B53048006840F001002E49C0
:10148000086000BF2C48006800F002000028F9D076
:1014900000BF2948406840F080002749486000208C
:1014A000009002E00098401C009000985028F9D36A
:1014B0002148406840F090001F494860002000909B
:1014C00002E00098401C009000985028F9D300BF1B
:1014D0001948406820F00300174948600846006832
:1014E00016490840144908600846406814490840F5
:1014F0001149486008460068104908400E490860D4
:101500000846006820F480200860084640680D49BD
:1015100008400949486008460068084908400649EB
:1015200008604FF41F00886000F06AFC00214FF053
:10153000006000F0C5FA08BD00100240FFFFF6FE93
:101540000C00FFE8FFFF00F700BFFEE7490050EA8C
:10155000C12018BF04204A0D18BF40F0010040F21E
:10156000FF72B2EB515F08BF40F00200012808BFD4
:101570000520704730380A2801D20120704700202A
:101580007047000010B540F2026000F037FB40F2F7
:10159000036000F033FB0123032210213B4800F0DD
:1015A00045F9022303221021384800F03FF9802337
:1015B00003220421364800F039F94FF480630322F6
:1015C0001021324800F032F908230322102130485C
:1015D00000F02CF90423032219462C4800F026F9C8
:1015E0002023032210212A4800F020F94FF48053D1
:1015F00003221021254800F019F940230322042179
:10160000234800F013F9002000F0A6F8012000F0B4
:10161000A3F8002000F022FB0621002000F042FB8E
:101620000221002000F03EFB0821002000F03AFBE0
:1016300003221146002000F03BFD06220421002079
:1016400000F036FD0A220521002000F031FD0120C6
:1016500000F004FB0621012000F024FB0221012000
:1016600000F020FB0821012000F01CFB03221146A2
:10167000012000F01DFD06220421012000F018FDCC
:101680000A220521012000F013FD10BD000C0140CD
:10169000000801402DE9F041804600BF404600F0BF
:1016A00095F80028FAD0404600F068F8122000F0C3
:1016B0000FFBFF2000F00CFB0546FF2000F008FBAD
:1016C0000646FF2000F004FB0746404600F044F8C1
:1016D000280440EA062040EA070404F4000008B1A8
:1016E00044F07F442046BDE8F0812DE9F0410546F5
:1016F0000C46012000EB4400C6B26006070E47EA24
:101700000610C2B20221284600F0D2FC022000F0EE
:1017100047F8BDE8F08100002DE9FF5F14461D4643
:101720000E9800F008FF064600220A4B00F016FF54
:1017300080468946009800F0E7FE064622462B4682
:1017400000F00CFF824642464B4600F085FD04B097
:10175000BDE8F09F0000604110B504462CB94FF47D
:101760008061044800F060F803E02021024800F0A6
:101770005BF810BD000C01400008014010B50446A4
:101780002CB94FF48061044800F04CF803E02021AC
:10179000024800F047F810BD000C0140000801406D
:1017A0000349086000BF024909680029FBD170475E
:1017B000140000200448006820B103480068401E5F
:1017C00001490860704700001400002010B504466D
:1017D00044B90421084800F07FF808B9012010BD81
:1017E0000020FCE74021054800F076F808B9012008
:1017F000F5E70020F3E70000000C0140000801407D
:101800000149086070470000140401400146044883
:101810000068084008B1012070470020FCE7000084
:10182000140401404161704701617047F0B50446FE
:1018300016460025002201F00F0501F0100707B140
:10184000354300201EE0012787401F40C7B12268B2
:101850004FEA800C0F2707FA0CF7BA43870005FA06
:1018600007F73A43282904D1012787401F406761C1
:1018700005E0482903D1012787401F4027612260E6
:10188000471CB8B20828DED3082022E00127874091
:101890001F40E7B16268A0F108074FEA870C0F27E5
:1018A00007FA0CF7BA43A0F10807BF0005FA07F7DB
:1018B0003A43282904D1012787401F40676105E08A
:1018C000482903D1012787401F4027616260471CD8
:1018D000B8B21028DAD3F0BD02469068084008B1CB
:1018E000012070470020FCE770B504460D46002239
:1018F000024B2046294600F031FE70BD0080444076
:101900002DE9FF5F84B014461D46DDE912AB149843
:1019100052465B4600900498FFF7FEFE06460F46CF
:1019200020462946FFF7E0FF8046894642464B465F
:101930003046394600F0E8FBCDE90201DDE902015D
:1019400000F004F808B0BDE8F09F000070B5044650
:101950000D460022024B2046294600F07DFC70BD5A
:1019600000804440A6B000F04FFA4FF4165000F04B
:1019700077FAFFF707FE39A000F0A4F96CE0002425
:101980002EE021460020FFF7B0FE0020FFF782FE88
:10199000814608200022384B00904846FFF7BCFEE5
:1019A00005460E4608200021029033480A46334B74
:1019B000CDE900104846FFF7A3FF074688462346B7
:1019C0002FA2802106A8CDF80090CDE90478CDE9BA
:1019D0000256FEF717FC06A800F074F9601CC4B2AA
:1019E000062CCEDB00242EE021460120FFF77DFEF1
:1019F0000120FFF74FFE8146082000221E4B009079
:101A00004846FFF789FE05460E4608200021029051
:101A100019480A46194BCDE900104846FFF770FFF8
:101A20000746884623461EA2802106A8CDF80090CE
:101A3000CDE90478CDE90256FEF7E4FB06A800F0F4
:101A400041F9601CC4B2062CCEDB14A000F03AF9B8
:101A50004FF47A70FFF7A4FE91E700005448455216
:101A60004D4F434F55504C45204D4F44452031324A
:101A700043480D0A00000000D012434100003940E5
:101A800041257520636F64653D256C642075763D46
:101A9000252E326620543D252E3266430D0A000065
:101AA00042257520636F64653D256C642075763D25
:101AB000252E326620543D252E3266430D0A000045
:101AC000034A0A400243034B1A60BFF34F8F70472B
:101AD00080FFFF1F08ED00E02DE9F04F8BB00746B7
:101AE000002009903EA090E8004CC068CDE905BEFA
:101AF000CDF810A007900FF2EC0ADAE9000ACDE960
:101B0000020A0FF2E00ADAE9000ACDE9000A3848D1
:101B10004068C0F381000A900A9820B1012804D0DF
:101B2000022829D103E0334928E0324926E0304831
:101B3000406800F48038B8F5803F09D12D4C2C481E
:101B4000406800F40039B9F5003F02D1641000E0AC
:101B5000294C27484068C0F383422548406800F07C
:101B6000006008B142F010020F2A01D2921C00E07E
:101B7000521C04FB02F101E01E4900BF00BF1C48DB
:101B80004068C0F3031504A8465D21FA06F318481F
:101B90004068C0F3022502A8465D23FA06FC1448FB
:101BA0004068C0F3C2251DF8056023FA06F00890CE
:101BB00037B1012F06D0022F06D0032F0AD106E03D
:101BC000099108E0099306E0CDF824C003E00898E5
:101BD000099000E000BF00BF09980BB0BDE8F08F8E
:101BE00000000000000000000102030406070809CD
:101BF0000010024000127A0000093D00064A02EB84
:101C00009011096800F01F0301229A401143024B12
:101C100003EB90121160704700100240064A02EB7D
:101C20009011096800F01F0301229A409143024B72
:101C300003EB90121160704700100240064A02EB5D
:101C40009011096800F01F0301229A401143024BD2
:101C500003EB9012116070470010024010B504466B
:101C60005CB908210D48FFF7DDFD0220FFF798FD64
:101C700008210A48FFF7D8FD0CE04FF480510848CE
:101C8000FFF7D0FD0220FFF78BFD4FF48051044891
:101C9000FFF7CAFD0520FFF783FD10BD00080140D6
:101CA000000C014070B505460C462846FFF766FD5E
:101CB000204600F00DF82846FFF74EFD0120FFF703
:101CC0006FFD70BD10B50446204600F015F910BD3B
:101CD00070B504460025002624E001211548FFF7D1
:101CE000A1FD04F0800020B102211248FFF79CFD05
:101CF00003E002210F48FFF795FD00BF00BF01215F
:101D00000C48FFF791FD6806050E80210A48FFF791
:101D1000E3FD08B145F0010500BF00BF6006040EF9
:101D2000701CC6B2082ED8DB01210248FFF77AFDED
:101D3000284670BD000C0140000801400020002131
:101D40002C4A126842F480322A4B1A6000BF401CB1
:101D5000284A126802F4003119B94FF6FF72904216
:101D6000F5D1244A126802F400320AB900BFFEE736
:101D7000204A52681F4B5A601A4652685A601A46E7
:101D8000526842F480625A601A46526822F4403225
:101D90005A601A46526842F440325A601A465268F3
:101DA000154B1A40134B5A601A465268134B1A438C
:101DB000104B5A601A46126842F080721A6000BFD7
:101DC0000C4A126802F00072002AF9D0094A5268DF
:101DD00022F00302074B5A601A46526842F0020290
:101DE0005A6000BF034A526802F00C02082AF9D177
:101DF0007047000000100240FFFFC3F700002808F2
:101E000010B5FFF79BFF10BD10B5124800684FF4E6
:101E10007A71B0FBF1F4601EB0F1807F01D3012034
:101E20000FE0601E4FF0E02148610F214FF0FF30BE
:101E3000FFF706FB00204FF0E021886107200861D2
:101E4000002008B100BFFEE70021481EFFF7F8FAA6
:101E500010BD00001800002001460020486A7047AD
:101E600010B5044640F20260FFF7C8FE40F20E6073
:101E7000FFF7C4FE4FF40073032218211448FFF744
:101E8000D5FC4FF48063032204211148FFF7CEFCF8
:101E9000104800F089F821460E4800F039F800217A
:101EA0000C4800F0DDF800210A4800F0F9F80021A4
:101EB000084800F0E5F80821064800F0E9F8042198
:101EC000044800F0D5F8034800F0B6F810BD000053
:101ED000000801400038014010B50446214605487D
:101EE00000F05EF800BF0721024800F0AAF80028C1
:101EF000F9D010BD0038014070B50446002503E05C
:101F0000605DFFF7E9FF6D1C605D0028F8D170BDD2
:101F10002DE9F04704460D460027B846B94600268D
:101F20001D49601A8C421CD006DC1C48204470B14C
:101F3000B0F5806F1FD10FE0B0F5806F16D0B0F50F
:101F40006C4F18D10320FFF7C7FD074614E00220AD
:101F5000FFF7C2FD07460FE00220FFF7BDFD074671
:101F60000AE00220FFF7B8FD074605E00220FFF770
:101F7000B3FD074600E000BF00BF07EB5500B0FB14
:101F8000F5F64FF6F07006EA000806F00F0948EA89
:101F90000900A060BDE8F087004C004000BCFFBF16
:101FA000C1F308024260704710B504462049601A28
:101FB0008C4228D006DC1F48204490B1B0F5806FD9
:101FC00033D117E0B0F5806F26D0B0F56C4F2CD12F
:101FD00040F20E30FFF732FE40F20E30FFF71EFEE9
:101FE00024E040F21140FFF729FE40F21140FFF7D4
:101FF00015FE1BE040F21240FFF720FE40F21240B7
:10200000FFF70CFE12E040F21340FFF717FE40F21C
:102010001340FFF703FE09E040F21440FFF70EFE05
:1020200040F21440FFF7FAFD00E000BF00BF10BD12
:10203000004C004000BCFFBFC16841F40051C160CA
:10204000704710B5024602EB9110006801F01F04C2
:102050000123A340184008B1012010BD0020FCE777
:10206000C26822F4C062C260C2680A43C26070479C
:102070000A460021C16821F004011143C160704784
:10208000026922F44052026102690A430261704708
:102090000A460021C16821F008011143C160704760
:1020A000C26822F48052C260C2680A43C2607047AC
:1020B00070B506460C4615463046FFF75FFB44F008
:1020C0004000FFF705FE0020FFF702FE2846FFF75D
:1020D000FFFD3046FFF740FB70BD000010B5002942
:1020E0000AD00878002807D005487844FEF748FD54
:1020F000002801D0002010BD0248784410BD000027
:10210000FA080000F208000010B591EA030F48BF7A
:1021100083F0004300F12883841A71EB030C05D28D
:10212000121943EB0C03001B61EB0C01DFF824E1F7
:102130004FEA1154A4EB135C1EEA430F18BF9EEA4A
:10214000445F73D023EA0E03DCF1200E21EA045130
:1021500043F4801332D322FA0CFE10EB0E0023FA64
:102160000CFE41EB0E01CCF1200E03FA0EFE10EB3B
:102170000E0051F10001B1F5801FCCF1200E32D2DA
:1021800001EB045112FA0EF2BDE8104058BF70473F
:10219000401C38BF5FEA420218BF7047002814BFD6
:1021A00020F0010041F100014FEA410313F5001F47
:1021B00038BF7047A1F1C04100F0C8BA012A43EB13
:1021C0000302ACF1200CDCF11F0E32BF4FF0000E09
:1021D00023FA0CF310EB030041EB0451B4EB115F55
:1021E000D0D0A1EB045101F5801149085FEA30001D
:1021F00001EB04510ED350F1000038BF12FA0EFE6D
:1022000008D1BDE81040C9E7401C38BF5FEA420270
:10221000CAD1C3E7BDE810404FEA410313F5001FE0
:1022200038BF7047A1F1C04100F090BA9EEA445F08
:1022300008D011EA5E0FBDE8104004BF01F0004174
:1022400000207047BDE8104070B500F031FA00BFC3
:1022500064FBBE3E0000E0FF2DE9C04130B4DFF872
:10226000A0C23CEA111418BF3CEA131400F0EC8041
:1022700081EA03051CEA111444EAD57418BF1CEA6C
:10228000131500F0C780A4EB05044FF0004545EAA4
:10229000C12145EAC32341EA505143EA525304F1B4
:1022A0007F74994204F500344FEAC0204FEAC222FD
:1022B00008BF904200F09C804FEA13650FF2401671
:1022C000765D4FEA134506FB05F7C7F1807706FBFD
:1022D00007F74FEAD737A7FB03687642C8F580387F
:1022E000A7FB06CE38BFA8F1010807FB08E64FF0B0
:1022F000000EA6FB028CE6FB03CEDCF1000CCEF157
:10230000004E38BFAEF1010EA6FB0C584FF000078F
:102310004FF00005E6FB0E87A1FB08C6A0FB07CE29
:1023200016EB0E0645F10005E1FB076515F1E04EE1
:102330007EBFA4F580345FEA46066D4116F1800742
:1023400045F100054FEA17274FEA066647EA056799
:10235000A6F1DE46B6F1805F4FEA15251FD9384653
:1023600024F0010C05EBC471BCF1FE6F01EB0C1104
:1023700002D8F0BCBDE8008124425CBF01F5801E9C
:102380009EEAC47F02D4F0BCBDE80081244238D468
:10239000F0BCA1F1C041BDE8004100F0D7B94FEA5F
:1023A000D22242EA43524FEAD323A7FB02864FEAE6
:1023B000D02040EA415007FB03661EEA0E0F4FEAA9
:1023C000D12105FB026658BFA6EB0056B6EB0056BE
:1023D0004FEA520E4EEAC37E18EB0E0E56EB530E2A
:1023E000BDD518EB02085E417F1C55F10005B6E72C
:1023F0004FF480154FF000074FF000064FF0000833
:10240000ADE7F0BC4FF0000001F1C04101F0004128
:10241000BDE8008111EA0C1F0CEA131500D00CE096
:1024200013EA0C1F00F025804FF00000F0BC81EA99
:10243000030101F00041BDE80081F0BCBDE80041AE
:1024400081EA030100F082B9F0BCBDE8004170B53B
:1024500000F02EF9097EFC3E00F007B881EA030186
:102460004FF0000001F00041704781EA030100F0E5
:102470006DB9F0BCBDE800414FF000002149704744
:10248000FFFDFBF9F7F5F4F2F0EEEDEBE9E8E6E439
:10249000E3E1E0DEDDDBDAD8D7D5D4D3D1D0CFCDC0
:1024A000CCCBCAC8C7C6C5C4C2C1C0BFBEBDBCBBF9
:1024B000BAB9B8B7B6B5B4B3B2B1B0AFAEADACABF4
:1024C000AAA9A8A8A7A6A5A4A3A3A2A1A09F9F9ECE
:1024D0009D9C9C9B9A999998979796959594939380
:1024E000929191908F8F8E8E8D8C8C8B8B8A898917
:1024F000888887878685858484838382828181809A
:102500000000FF070000F87F10F0004248BF404283
:10251000B0FA80F310FA03F10AD0C3F11D0303F5FA
:1025200080634FEA415002EB035202EBD121704726
:102530004FF000007047B0FA80F310FA03F10AD0B0
:10254000C3F11D0303F580634FEA41504FEA035284
:1025500002EBD12170474FF000007047DFF848C10F
:1025600070B51CEA111E1EBF1CEA13159EEA0C0F63
:1025700095EA0C0F00F06F8081EA030423EA4C1304
:102580004EEAD47E21EA4C1141F4801143F48013C9
:10259000AE44A1FB024CA0FB0365AEF17F7E361971
:1025A00055EB0C05A1FB034C4CF10003A0FB021CF6
:1025B00016EB0C06654153F10003094218BF46F0C3
:1025C000010613F4007F0BD14FEA03314FEA0530C7
:1025D000340341EA155140EA16506FF003020AE055
:1025E0004FEAC3214FEAC520F40241EA555140EABF
:1025F00056506FF0020202EB2E4201EB025585EAC3
:10260000CE710AD05FEA440C18BF24F0004450F1A8
:10261000000041F1000120EAD47040F2FE7C6245E6
:1026200000D270BDA84214BF4FF080444FF0404428
:10263000002E08BF0024BEF1806FA8BFA1F1C041E9
:10264000BDE8704080F282804FF0000001F1C0418F
:1026500001F0004170479EEA0C0F0CEA131518BFF9
:1026600095EA0C0F06D04FF0000081EA030E0EF041
:10267000004170BD00F01CF88900013E00F007B871
:1026800000F009B84FEA430C5FEA5C5C08D081EACD
:10269000030100F05BB84FEA410C5FEA5C5CF6D1E5
:1026A0004FF00000014970470000FF070000F87F6D
:1026B0000EF1020E2EF0030E5EF8046B364205D4C6
:1026C000012A43EB030515F5001F12D8012841EB41
:1026D000010C1CF5001F0CD80ED14FEAD17C15F56A
:1026E000001F0CEB4C0C0CF1020C08BF4CEBD37C24
:1026F00004E04FF0080C01E04FEAD37C0CEB4C05F2
:1027000026FA05F606F00706B6F1040C06D20EEB23
:10271000860CBDE870404CF0010C6047DFE80CF01F
:10272000090B02024FF000414FF00000A1F500211B
:1027300070BD19461046012851EB010418BFD4F5AD
:10274000001484BF002001F0004170BD0808A0F50E
:1027500000114FEA3101704710B591EA030F48BFED
:1027600083F000433FF5D8AC841A71EB030C07D219
:1027700012198CF0004C43EB0C03001B61EB0C01B5
:10278000DFF8A4E14FEA1154A4EB135C1EEA430FF7
:1027900018BF9EEA445F00F0B08023EA6E03524205
:1027A00021EA0451C3EB6E0338BF5B1EDCF1200E3F
:1027B00025D322FA0CFE10EB0E0043FA0CFE41EB7F
:1027C0000E01CCF1200E03FA0EFE10EB0E0051F1BB
:1027D0000001CCF1200E29D412FA0EF201EB0451C3
:1027E000BDE8104058BF7047401C1CBFB2F1004FFD
:1027F000704700280CBF491C20F00100704712EB05
:10280000020E43EB030218BF4FF0010E4EEA4202E4
:10281000ACF1200CDCF11E0E54D943FA0CFE10EB87
:102820000E0051F1FF31CCF11E0ED5D50EF1010E87
:1028300012FA0EFE404141EB010101EB445C5FEAFC
:102840005C5C10D910EBDE7001EB045138BFBEF1B7
:10285000004FBDE8104018BF704700280CBF491C4E
:1028600020F00100704730D24FEAD42C11F500114E
:1028700024F400641BD0B1FA81F20B3AA41AA41E0E
:10288000D2F12003914030FA03F31943904001EB59
:10289000CC71002C01EB0451BDE81040A8BF70477B
:1028A00001F1C0414FF0000001F000417047B0FA63
:1028B00080F310FA03F100D110BDE41A173C48056B
:1028C000C90AE4E701EB045110BD491001EB0451C2
:1028D000BDE810404FEA300002E04FF000017047C1
:1028E0004A0008BF0042F8D0B2F5001F28BF704769
:1028F00001F000414FF0000070479EEA445F07D0AE
:1029000011EA5E0FBDE8104004BF002100207047AF
:10291000BDE8104070B5FFF7CBFE00BF40DFF63ECC
:1029200083F00041104670470000E0FFFDF7A3BEB2
:1029300002400000000000A0000000000540000070
:10294000000000C8000000000C4000000000409C97
:1029500000000000194000000020BCBE0000000084
:1029600034400000BFC91B8E00000004B5400000C9
:10297000504BCFD06607E2CF010000006C41000051
:102980003E8251AADFEEA73401000000D9420000C8
:10299000DCB5A0E23A301F97FFFFFFFFB44500000F
:1029A000FD25A0C8E9A3C14FFFFFFFFFFF3F0000C7
:1029B0000000008000000000FF3F000000000080D9
:1029C00000000000002A0008000000201C00000099
:1029D000400100081C2A00081C00002064060000BA
:1029E0005C0100081C00000043000000F8FFFFFF2E
:1029F0000C0000000E0000000F0000002E00000080
:102A000000000000000000000000000000000000C6
:0C2A10000000803F0000000000F36F0693
:04000005080001C529
:00000001FF
