:020000040800F2
:1000000038070020C501000821150008191500084F
:100010001D150008611400082D16000800000000DE
:100020000000000000000000000000004F15000864
:1000300065140008000000004D1500085115000867
:10004000DF010008DF010008DF010008DF01000810
:10005000DF010008DF010008DF010008DF01000800
:10006000DF010008DF01000869140008DF01000853
:10007000DF010008DF010008DF010008DF010008E0
:10008000DF010008DF010008DF010008DF010008D0
:10009000DF010008DF010008DF010008D5140008B7
:1000A000DF010008DF010008DF010008DF010008B0
:1000B000DF010008DF010008DF010008DF010008A0
:1000C000DF010008DF010008DF010008DF01000890
:1000D000DF010008DF010008DF010008DF01000880
:1000E000DF010008DF010008DF0100080000000058
:1000F0000000000000000000000000000000000000
:10010000DF01000800F002F800F04DF80AA090E8C6
:10011000000C82448344AAF10107DA4501D100F0C2
:1001200042F8AFF2090EBAE80F0013F0010F18BF42
:10013000FB1A43F00103184788340000A83400007C
:10014000103A24BF78C878C1FAD8520724BF30C803
:1001500030C144BF04680C607047000000230024D5
:1001600000250026103A28BF78C1FBD8520728BFC7
:1001700030C148BF0B607047662903F0CC817529F8
:1001800000F0A680732900F03C84002070471FB562
:1001900000F03CFC04000020002102F053FBE06072
:1001A0001FBD10B510BD00F02DFD1146FFF7EFFF8C
:1001B00001F064FD00F04BFD03B4FFF7F2FF03BC58
:1001C00000F08CFD0948804709480047FEE7FEE73C
:1001D000FEE7FEE7FEE7FEE7FEE7FEE7FEE7FEE7F7
:1001E00004480549054A064B7047000059150008A8
:1001F00005010008380100203807002038030020DE
:10020000380300200FB41CB5084B06AA7B4469468E
:100210000090059800F0CBFB04460020694600F0F2
:10022000D9FB20461CBC5DF814FB0000C50700008C
:1002300070B5044685690068C10601D5302600E026
:100240002026C00707D070BDD4E901213046904771
:10025000206A401C20626D1EF6D570BD70B5044644
:1002600085690078C00707D170BDD4E9012120203D
:100270009047206A401C20626D1EF6D570BD70B597
:100280000C460546012A05D02878800600D5EA6983
:10029000002302E0012305E05B1C934202D2E05CF4
:1002A0000028F9D1A869E618C01AA861286A18447C
:1002B00028622846FFF7BCFF04E0D5E9012114F8C5
:1002C000010B9047B442F8D32846FFF7C7FF70BD33
:1002D0002DE9F0410646002410687529314616A51F
:1002E00010D0AFF30080002802DA404213A507E0E7
:1002F00031688A0701D512A502E0490704D511A586
:10030000012401E0AFF3008000210A2206F1240756
:1003100009E0B0FBF2FCB0FBF2F302FB1C00303052
:1003200078541846491C0028F3D123462A46304603
:10033000BDE8F04100F0CFB8000000002D00000043
:100340002B000000200000002DE9F05F89460446E4
:100350004FF0000ADFF874B1FB44C0F820A020463B
:10036000E1688847002874D0252806D0D4E9012107
:100370009047206A401C2062F1E700265F46204635
:10038000E16888472028054607DB312D05D278191A
:1003900010F8200C08B10643F1E7B00701D526F0AC
:1003A0000406C4F81CA00027C4F818A02A2D09D000
:1003B000284601F051F938B304EB8708303DC8F8FE
:1003C000185019E059F8041B204604EB870291618C
:1003D000E1688847012F054618D1E069002820DA36
:1003E00026F020061DE0D8F8180000EB800005EB91
:1003F00040003038C8F818002046E16888470546B4
:1004000001F02AF90028EED1012F0AD02E2D08D1B3
:100410002046E16888477F1C0546022F46F02006EB
:10042000C4DBA069002803DA404246F00106A0615F
:10043000F00701D026F010066C2D0BD0682D09D0E6
:100440004C2D39D06A2D35D0742D35D07A2D33D03E
:1004500016E038E0E1682F4620468847B842054656
:1004600009D16C2F26D04FF48060E1680643204606
:100470008847054604E06C2F1AD04FF4807006437D
:100480000DB3A5F14100192802D8203546F40066C5
:100490004A462946204626604E46FFF76DFE80B14B
:1004A00001280BD0F61D26F0070000F1080956E7D9
:1004B0004020E4E78020D8E70020D6E706F10409D1
:1004C0004DE7284652E7206ABDE8F09FBE310000A4
:1004D0007047704770472DE9F0470D4699469246A0
:1004E000044600F124080168880604D5E06921F07B
:1004F0001001216000E00120A84201DD471B00E05F
:100500000027A1697A1902EB0900081AA061207876
:10051000C00602D42046FFF78BFE002608E0D4E98F
:1005200001211AF806009047206A401C761C2062C0
:100530004E45F4DB2078C0060AD52046FFF778FE4A
:1005400006E0D4E9012130209047206A401C206257
:10055000381EA7F10107F4DC07E0D4E9012118F8FF
:1005600005009047206A401C2062281EA5F1010565
:10057000F3DC2046FFF772FE2078000602D5022049
:10058000BDE8F0870120FBE770472DE9FF4F0C46DF
:100590001E464FF0FF378BB0D2E90001DDF86080D6
:1005A0000A908A46C1F30A5505B93D46002108461E
:1005B0004FF00000BAF1000F00F4400005DA00EB44
:1005C00080004FF4400101EA50004FEA9059B9F120
:1005D000010F00DDB9460A9850EA4A000ED044F6F1
:1005E0001050A5F2FF3545432F14B8F1000F1ED06F
:1005F0007542291E1EDDC9F100021CE0B8F1010F91
:100600004FF0000001D0302103E0F24305E0215417
:10061000401CB042FBDB30460022002121540B99E4
:10062000C1F80880C1E900200FB0BDE8F08FBD1B04
:100630006D1CDEE74A4600DA694206A800F070FA4F
:1006400006AB93E8070003AB83E8070050460A991E
:1006500000F04BFB8DE80700A0F500501F3800901C
:100660000398002D09DD42F21F014A46084403A900
:100670000390684600F0AAFD08E0A0F500504A4645
:100680001F3803A90390684600F0B4FD8DE8070009
:100690000004000C03D04FF0FF30410800E010468A
:1006A000B8F1000F03D00022009215461EE0751E1F
:1006B00005D400F0AFF9303262556D1EF9D5B3465E
:1006C0000122084302D000227F1C04E02078302859
:1006D00001D100227F1E002A099786D01DE0112D2E
:1006E00007DA00F097F9303262556D1C50EA0102CA
:1006F000F5D1084302D00098C8B10EE00021681E71
:1007000005E0235C625C63542254401E491C814214
:10071000F7DBAB46A81B401E0990002004F80B0035
:100720000B98099AC0F80880C0E9002B7CE71126D5
:100730004FF0000859E72DE9F04F88460446D21DD6
:1007400022F0070191B0D1E90001CDE90A0100F0E2
:100750006FFF02460B98C00F01D02D2007E02068E4
:10076000810701D52B2002E0202101EAC000032AE5
:10077000099001D0072A05DB03464146204600F0D8
:100780008FF90BE12078800601D5E06900E00620B2
:10079000B8F1650F814606D0B8F1660F18D0B8F1F0
:1007A000670F70D131E00020B9F1110F009001DB2B
:1007B000112301E009F101030AAA01A90CA8FFF71E
:1007C000E4FEDDE90C70002609F10105834647E0EF
:1007D00001204B4600904FF000470AAA01A90CA83F
:1007E000FFF7D3FEDDE90DB00C995D46002610B988
:1007F00009F101000D18B9EB050003D4C0F1FF3673
:1008000009F10105A5EB09002BE0B9F1010F01DAAF
:100810004FF001090020B9F1110F0090484601DDA9
:10082000112300E003460AAA01A90CA8FFF7ADFEB8
:10083000DDE90C704D4600268346207800070AD477
:10084000AB4500DA5D4601A8012D04DD411911F820
:10085000011C302907D04F4502DA17F1040F04DAE2
:10086000012082460FE06D1EEEE7002F02DCED1B3B
:100870003E4403E0781CA84200DD7D1CB81B00F15B
:10088000010A4FF000472078000703D4AA4501DB96
:100890004FF0FF3A0021B7F1004F0DF143088DF8FA
:1008A000431024D002202B23002F01DA7F422D2376
:1008B0000A21021EA0F1010000DC5FB197FBF1FCF0
:1008C00097FBF1F201FB1C7C17460CF1300C08F889
:1008D00001CDEEE7A8F1010003702188090501D5DB
:1008E000452100E06521A0F1010800F8011C0998EC
:1008F0000FA9A1EB0807FF1D00B10120411901EB71
:10090000EA70A1693844081A401EA0612078C00628
:1009100002D42046FFF78CFC099828B1D4E90121C4
:100920009047206A401C20622078C00622D52046CD
:10093000FFF77EFC1EE0002E04DBB34502DD01A8BC
:10094000805D00E03020D4E901219047206A401CFE
:100950002062761CAAF101005FEA000A0AD100F0C9
:1009600055F8C0680168405CD4E901219047206ACD
:10097000401C2062281EA5F10105DCDC07E0D4E95B
:10098000012118F8010B9047206A401C2062381E94
:10099000A7F10107F3DC2046FFF760FC032011B04C
:1009A00043E6000001694A1C02610878704700B5FF
:1009B0008FB0CDE901310021059105497944CDE998
:1009C000031011466846FFF7BFFC0FB000BD0000E2
:1009D000E5FFFFFF0A6802F8010B0A60704710B5D7
:1009E000436913B1AFF3008001E0FFF748FC012039
:1009F00010BD127800F124010A7000224A70012211
:100A0000EDE711684FF0FF32E9E70000004870475A
:100A1000F400002030B5B0F10A024FEA900E71F1F7
:100A200000034EEA817EB0EB0E0061EB91014FEACC
:100A3000101E4EEA017E10EB0E0041EB11114FEA41
:100A4000102E4EEA016E10EB0E0041EB11214FEA21
:100A5000104E4EEA014E10EB0E0041EB11414018D2
:100A600041F100014FEAD00040EA41704FEAD10164
:100A700010EB80054FEA810444EA907444EB0104D2
:100A80006D1944EB0404521BA3414FF0000348BF0F
:100A90000A3200D530BD401C41F1000130BD0000DC
:100AA0002DE9F0411F46044603260168072A01F498
:100AB000006004DB08B116A505E016A503E008B147
:100AC00015A500E015A521F010002060A069C01E4A
:100AD000A0610FB1401EA0612046FFF7A9FB4FB1F6
:100AE000D4E9012138469047206A401C2062C01C8E
:100AF000206206E0206AFAE7D4E9012115F8010B2B
:100B00009047761EF8D22046FFF7A8FBBDE8F0819B
:100B10004E414E006E616E00494E4600696E6600A1
:100B20002DE9F047814616468AB0334878440DC80F
:100B30008DE80D0030487844801C03AC0DC884E873
:100B40000D0041F69B300844372190FBF1F290FBF9
:100B5000F1F5A5F1800501FB12041B3C02D56442AE
:100B6000012000E00020DFF890A080460027FA4432
:100B7000AAF1BE0A0DE0E00709D03246684607EB4D
:100B800047010AEB810100F035FB8DE80700641096
:100B90007F1C002CEFD1184F7F44AC3F18E0E807D2
:100BA00014D007EB04100DF1180A90E80E008AE843
:100BB0000E00C068F04201D198190890324606A98B
:100BC00003A800F017FB03AB83E807006D10641C5B
:100BD000002DE4D132466946B8F1000F03A802D0D7
:100BE00000F0F4FA01E000F005FBC9E90001C9F8E2
:100BF00008200AB0BDE8F087782A00000048704756
:100C0000D40000207546FFF7F9FFAE46050069469F
:100C1000534620F00700854618B020B5FFF7E0FAEC
:100C2000BDE820404FF000064FF000074FF00008ED
:100C30004FF0000B21F00701AC46ACE8C009ACE86E
:100C4000C009ACE8C009ACE8C0098D46704704464D
:100C5000AFF300802046FFF7AFFA00004FF0013CF1
:100C600050F8042B51F8043B9A4221D1A2EB0C031B
:100C7000934313EACC1317D150F8042B51F8043BDB
:100C80009A4215D1A2EB0C03934313EACC130BD178
:100C900050F8042B51F8043B9A4209D1A2EB0C0303
:100CA000934313EACC13DBD04FF00000704700BF32
:100CB000D01A01BAB1FA81F101F0180122FA01F05B
:100CC000CB40C1F12001DBB2C0B2C01A2CFA01F353
:100CD000D11A914311EAC311E6D170470149182096
:100CE000ABBEFEE72600020070475FEA400C08BF7B
:100CF00091F0000F4FEA8C234FEAC12243EA515191
:100D00004FEA1C5018BF00F5F0404FEA300018BF02
:100D100041F000415FEA6C5C00F02980BCF1FF3FCC
:100D200008BF40F080407047130C06BF12044FF01C
:100D3000100C4FF0000C130E04BF12020CF1080C43
:100D4000130F04BF12010CF1040C930F04BF9200A7
:100D50000CF1020CD30F04BF52000CF1010C114630
:100D60004FF00002A0F11F00A0EB0C00704711F043
:100D7000004F08BF704731F000413FF4D5AF0B0C76
:100D800006BF09044FF0100C4FF0000C0B0E04BF0F
:100D900009020CF1080C0B0F04BF09010CF1040C43
:100DA0008B0F04BF89000CF1020CCB0F04BF49006C
:100DB0000CF1010CCCF12003A0EB0C0022FA03F3A0
:100DC00002FA0CF241EA030100F10100704720F041
:100DD0007F4C80EA030023F07F47ACEB070303F569
:100DE0007C5300F0004003F1FF032DE980494FEAF6
:100DF000154B09B44FEA144325EA0B4E24EA034885
:100E00000FF2042606EB132749083E785FEA320208
:100E100003FB0667C7F5000707FB06F64FEA5437E2
:100E20004FEAD64606F1020607FB066CCCF1005CE1
:100E30004FEA1C472CEA074C07FB06F40CFB06F5AF
:100E400004EB15464FEA961634BF00204FF00040E1
:100E50004FEAD13706FB07FC4FEA1C4C0CFB0BF7A3
:100E6000D21B03FB0CF761EB07010CFB0EF7B0EB99
:100E7000074072EB17420CFB08F734BFA2EB0742A6
:100E8000B2EB074261EB17414FEA0C444FEA91077E
:100E900006FB07FC4FEA1C4C0CFB0BF7B0EBC74002
:100EA00072EB573203FB0CF734BFA2EBC742B2EB35
:100EB000C74261EB57310CFB0EF7B0EBC70072EB8A
:100EC00057720CFB08F734BFA2EBC702B2EBC702A4
:100ED00061EB5771039F4FEA816141EA921104EB84
:100EE000CC044FEAD1374FEA826206FB07FC42EAA4
:100EF00090124FEA80604FEA1C4C0CFB0BF7D21BA0
:100F000003FB0CF761EB07010CFB0EF7B0EB07409E
:100F100072EB17420CFB08F734BFA2EB0742B2EBAF
:100F2000074261EB17414FEA8C554FEA910704EBFA
:100F30009C2406FB07FC4FEA1C4C0CFB0BF7B0EBA8
:100F4000C74072EB573203FB0CF734BFA2EBC7422A
:100F5000B2EBC74261EB57310CFB0EF7B0EBC700A9
:100F600072EB57720CFB08F734BFA2EBC702B2EB6F
:100F7000C70261EB577115EB4C254FEA816141EADD
:100F800092114FEA82624FEAD13742EA901206FB91
:100F900007FC44F100044FEA80604FEA1C4C0CFB54
:100FA0000BF7D21B03FB0CF761EB07010CFB0EF7F1
:100FB000B0EB074072EB17420CFB08F734BFA2EB13
:100FC0000742B2EB074261EB174115EB1C154FEAE4
:100FD000813141EA92414FEA823242EA90424FEA3D
:100FE00080304FEA0C7644F1000448EA03434EEAAD
:100FF0000B484FF0000EB2EB080C71EB030724BF57
:10100000624639464EEB0E0E4FF0000B001852416F
:1010100049414BEB0B0BB2EB080C71EB03077BF177
:10102000000B24BF624639464EEB0E0E4FF0000B0C
:101030000018524149414BEB0B0BB2EB080C71EB22
:1010400003077BF1000B24BF624639464EEB0E0EC0
:1010500051EA020718BF46F0010616EB0E7655F16D
:10106000000254F1000103D5BDE88901BDE8008804
:10107000BDE88901BDE80048B619524141EB0101C4
:10108000A3F10103704780807F7E7D7C7B7A797835
:10109000777676757473727171706F6E6E6D6C6C3D
:1010A0006B6A6A69686867666665646463636261DF
:1010B0006160605F5F5E5E5D5D5C5C5B5B5A5A5960
:1010C00059585857575656555555545453535252CC
:1010D0005251515050504F4F4F4E4E4D4D4D4C4C24
:1010E0004C4B4B4B4A4A4A4949494848484747476D
:1010F00047464646454545444444444343434342AA
:10110000424242414141002B26D4770021D01CB5F8
:101110004FEA370703B44FF010004FF010014FF0C3
:1011200000000FBCBDE810400BF1010BBBF1010F3B
:1011300008BF5FEA170722BF12F1010211F1010196
:101140004FF0004143F1000300F0004043EA00008B
:101150007047F9D35708DAE746EA064613F1400F1D
:101160004FEA16461FDD13F1200FDFBF16430A4674
:10117000002120335B42C8D0C3F1200746EA06466F
:1011800002FA07F74FEA164646EA0706C3F12007B8
:1011900022FA03F201FA07F721FA03F14FF00003F4
:1011A00042EA0702B1E746EA020646EA06464FEA85
:1011B000164646EA0106BCBF46EA0646360C4FF024
:1011C00000034FF000024FF000019EE72DE9C048F8
:1011D000934630B491E8380007C831EA400C48BF64
:1011E00034EA430C03D5FFF7F2FDFFF78CFFF0BCA8
:1011F000BDE800882DE9C048934630B491E8380036
:1012000007C810F0804F08BF13F0804F03D100F0E3
:1012100005F8FFF778FFF0BCBDE8008820F07F47B5
:1012200080EA030023F07F4C07EB0C03A3F57C530B
:1012300000F00040A3F1FE0392F0000F00F0B38035
:1012400095F0000F00F077802DE901494FEA114039
:101250004FEA144621EA004800FB06FC24EA064750
:1012600008FB06F607FB08F800FB07F718EB064833
:101270004CEB164C4FEA124B18EB07484FEA154659
:101280004CEB174022EA0B4E0BFB06FC25EA064707
:101290000EFB06F607FB0EFE0BFB07F71EEB064EDA
:1012A0004CEB164C4FF000061EEB074E4CEB174B69
:1012B00018EB0B0840F1000018EB0E0B58EB000880
:1012C00040F100008F1A4FF000013CBFC943661B7C
:1012D00014BFB5EB040C00213CBFC943F61B4FEA19
:1012E00017444EEA8E0E27EA04454FEA1C4704FBDA
:1012F00007622CEA074C05FB07F70CFB05F604FB1D
:101300000CFC16EB074642EB174216EB0C4642EB81
:101310001C421BEB060658EB0202414146EA9E06C0
:1013200001D5BDE80189B619524141EB0101A3F194
:101330000103BDE801894FEA14454FEA114724EA49
:10134000054621EA074C05FB07F406FB07F70CFBF3
:1013500006F105FB0CFC11EB074144EB17444FEA87
:10136000124711EB0C4144EB1C4422EA074C05FBED
:1013700007F206FB07F70CFB06F605FB0CFC16EB69
:10138000074642EB174216EB0C4642EB1C456A1827
:1013900054F1000148BF7047B619524141EB0101B9
:1013A000A3F10103704795F0000F37D04FEA1142C7
:1013B0004FEA144721EA024624EA074C02FB07F1F0
:1013C00006FB07F70CFB06F402FB0CFC14EB0744CE
:1013D00041EB17414FEA154714EB0C4441EB1C411C
:1013E00025EA074C02FB07F506FB07F70CFB06F6A0
:1013F00002FB0CFC16EB074645EB174516EB0C46BB
:1014000045EB1C42121951F1000148BF7047B61953
:10141000524141EB0101A3F1010370474FEA14452A
:101420004FEA114724EA054621EA074C05FB07F17C
:1014300006FB07F70CFB06F24FF0000605FB0CFC61
:1014400012EB074241EB174112EB0C4251EB1C41EE
:1014500048BF7047921841EB0101A3F101037047A7
:1014600000BFFEE77047000010B5102000F0C6FA7C
:1014700020B3134800F0A2FF04461248007890B150
:1014800011480068844205D30F480068201A0F49AC
:10149000086008E00C4800684FF6FF71081A401C0D
:1014A00020440A4908600848046001200549087082
:1014B00007490870102000F09BFA00BF10BD000023
:1014C000000400401C000020140000201800002030
:1014D0001D00002010B5202000F090FA98B12021C6
:1014E000094800F03DFB28B101200849087008496F
:1014F000087005E0002005490870012005490870C2
:10150000202000F075FA10BD000C01400E000020F4
:101510000F0000201000002000BFFEE700BFFEE724
:101520007047000010B5002807DA0A07140E054AB4
:1015300000F00F031B1FD45403E00A07130E024AE6
:10154000135410BD18ED00E000E400E07047704750
:1015500010B500F0C9F910BD08B53048006840F07A
:1015600001002E49086000BF2C48006800F002000E
:101570000028F9D000BF2948406840F08000274982
:1015800048600020009002E00098401C0090009805
:101590005028F9D32148406840F090001F49486026
:1015A0000020009002E00098401C00900098502815
:1015B000F9D300BF1948406820F00300174948607C
:1015C0000846006816490840144908600846406803
:1015D000144908401149486008460068104908400D
:1015E0000E4908600846006820F48020086008461C
:1015F00040680D49084009494860084600680849A4
:101600000840064908604FF41F00886000F0A8FEFB
:1016100000214FF0006000F0D9FB08BD001002402F
:10162000FFFFF6FE0C00FFE8FFFF00F700BFFEE73C
:10163000490050EAC12018BF04204A0D18BF40F0ED
:10164000010040F2FF72B2EB515F08BF40F00200B0
:10165000012808BF0520704730380A2801D2012030
:10166000704700207047000010B540F2026000F0A3
:1016700091FC40F2036000F08DFC01230322102155
:101680003B4800F017FA022303221021384800F0EB
:1016900011FA802303220421364800F00BFA4FF49C
:1016A000806303221021324800F004FA0823032249
:1016B0001021304800F0FEF90423032219462C487B
:1016C00000F0F8F92023032210212A4800F0F2F953
:1016D0004FF4805303221021254800F0EBF94023FA
:1016E00003220421234800F0E5F9002000F0CEF8A1
:1016F000012000F0CBF8002000F07CFC0621002047
:1017000000F09CFC0221002000F098FC0821002041
:1017100000F094FC03221146002001F07DF806221F
:101720000421002001F078F80A220521002001F0B0
:1017300073F8012000F05EFC0621012000F07EFC21
:101740000221012000F07AFC0821012000F076FC43
:1017500003221146012001F05FF806220421012036
:1017600001F05AF80A220521012001F055F810BDB8
:10177000000C0140000801402DE9F041804600BF07
:10178000404600F0BDF80028FAD0404600F090F83E
:10179000122000F04DFDFF2000F04AFD0546FF201D
:1017A00000F046FD0646FF2000F042FD0746404699
:1017B00000F06CF8280440EA062040EA070404F42C
:1017C000000008B144F07F442046BDE8F0810000ED
:1017D0002DE9FF5F14461D460E9801F092FA064669
:1017E00000220A4B01F0A0FA80468946009801F0D9
:1017F00071FA064622462B4601F096FA8246424688
:101800004B4601F00FF904B0BDE8F09F00006041C5
:101810002DE9FE430546002415E00020FFF7ACFF4C
:10182000804608200021029016480A46164BCDE952
:101830000010404600F0F0F9064601F019F845F8AE
:101840002400601CC4B2062CE7DB002416E0012053
:10185000FFF792FF804608200021029009480A46BF
:10186000094BCDE90010404600F0D6F9064600F0DD
:10187000FFFFA11D45F82100601CC4B2062CE6DB69
:10188000BDE8FE83D01243410000394010B5044644
:101890002CB94FF48061044800F0BEF803E0202129
:1018A000024800F0B9F810BD000C014000080140EA
:1018B00010B504462CB94FF48061044800F0AAF832
:1018C00003E02021024800F0A5F810BD000C014003
:1018D000000801400349086000BF02490968002967
:1018E000FBD17047240000200448006820B1034861
:1018F0000068401E01490860704700002400002075
:1019000010B5044644B90421084800F029F908B983
:10191000012010BD0020FCE74021054800F020F91F
:1019200008B90120F5E70020F3E70000000C0140B2
:101930000008014010B52D4B1B6883432B4C2360DE
:10194000231D1B688343241D2360231D1B688343C1
:10195000241D2360231D1B688343241D236011B1B4
:1019600001290ED105E0214B1B6803431F4C236066
:1019700008E01E4B1B1D1B6803431C4C241D2360E9
:1019800000E000BF00BF32B1012A11D0022A1CD0F2
:10199000032A27D127E0154B08331B680343134C58
:1019A00008342360231D1B688343241D23601BE030
:1019B0000E4B08331B6883430C4C08342360231DF3
:1019C0001B680343241D23600EE0084B08331B688B
:1019D0000343064C08342360231D1B680343241D66
:1019E000236001E000BF00BF00BF10BD0004014044
:1019F0000149086070470000140401400146044892
:101A00000068084008B1012070470020FCE7000092
:101A100014040140416170470161704710B5002214
:101A20008B071C0F0F2303FA04F204290EDA204B54
:101A30009B6893431E4CA36023469B688C07240F2E
:101A400000FA04F423431A4CA3602FE008290EDAAD
:101A5000174BDB689343164CE3602346DB688C0727
:101A6000240F00FA04F42343114CE3601EE00C2918
:101A70000EDA0F4B1B6993430D4C236123461B6900
:101A80008C07240F00FA04F42343094C23610DE072
:101A9000074B5B699343064C636123465B698C0784
:101AA000240F00FA04F42343014C636110BD0000CD
:101AB00000000140F0B5044616460025002201F062
:101AC0000F0501F0100707B1354300201EE0012784
:101AD00087401F40C7B122684FEA800C0F2707FAE2
:101AE0000CF7BA43870005FA07F73A43282904D1CF
:101AF000012787401F40676105E0482903D101277E
:101B000087401F4027612260471CB8B20828DED3F7
:101B1000082022E0012787401F40E7B16268A0F15A
:101B200008074FEA870C0F2707FA0CF7BA43A0F112
:101B30000807BF0005FA07F73A43282904D101270F
:101B400087401F40676105E0482903D1012787408E
:101B50001F4027616260471CB8B21028DAD3F0BD7D
:101B600002469068084008B1012070470020FCE759
:101B7000F0B50A46002300240021002500F00046AD
:101B8000B6F1004F02D11D4EF16901E01B4E7168A4
:101B9000C0F3034583B200F44016B6F5401F08D1E8
:101BA00021F07061154E766826F07066134F7E60E6
:101BB00012E000F48016B6F5801F06D1032606FA5F
:101BC00005F4A14341F0706106E0460D360103FAC9
:101BD00006F6B14341F0706122B1460D360103FAB9
:101BE00006F6314300F00046B6F1004F02D1034E35
:101BF000F16101E0014E7160F0BD000000000140A4
:101C000070B504460D460022024B2046294601F0DD
:101C10008BF870BD008044402DE9FF5F84B014460E
:101C20001D46DDE912AB149852465B4600900498BD
:101C3000FFF7CEFD06460F4620462946FFF7E0FF98
:101C40008046894642464B463046394600F042FEC1
:101C5000CDE90201DDE9020100F004F808B0BDE8B9
:101C6000F09F000070B504460D460022024B20464E
:101C7000294600F0D7FE70BD0080444000F074FBA0
:101C80004FF4165000F0A0FCFFF7EEFC00F07AFADB
:101C900000F0B4F84FF07E5000F0C4FA08A000F055
:101CA0006BFA0CE00F48FFF7B3FD0F480F490860CF
:101CB00000F006FC00F0D2F96420FFF70BFEF1E71C
:101CC0005265666C6F7754656D704D6F6E69746F99
:101CD0007220537461626C652053746172740D0AD2
:101CE000000000002C00002000002E420800002010
:101CF00070B504460D46224602A12846FEF782FA38
:101D000070BD000050434225303375002DE9F0418D
:101D100003460D46164600240027A04624480068C6
:101D200000F4E060B0F5A06F15D006DCB0F5407FA0
:101D300018D0B0F5806F19D110E0B0F5C06F06D0A3
:101D4000B0F5E06F12D100274FF0040815E001272D
:101D50004FF0030811E00227B8460EE003274FF0CA
:101D600001080AE004274FF0000806E04FF4A060E5
:101D700000F022F80227B84600BF00BFC7F10400F8
:101D800005FA00F4C8F104010F20C84030400443B4
:101D900024010848C45403F01F0101208840591150
:101DA000890001F1E021C1F80001BDE8F0810000E7
:101DB0000CED00E000E400E002490143024A11603A
:101DC000704700000000FA050CED00E0034A0A40ED
:101DD0000243034B1A60BFF34F8F704780FFFF1F12
:101DE00008ED00E00448007820B1002002490870A6
:101DF000012070470020FCE70F00002010B540F2E2
:101E0000036000F0C7F84FF4C06000F0C3F820236F
:101E1000032248211248FFF74DFE05210120FFF75C
:101E2000FDFD022200212020FFF784FD2020FFF786
:101E3000DFFD012202211720FFF768FF202108485B
:101E4000FFF78EFE18B101200649087002E000205D
:101E5000044908700020044908700449087010BD46
:101E6000000C01400E0000200F0000201000002098
:101E70002DE9F04F8BB00746002009903EA090E876
:101E8000004CC068CDE905BECDF810A007900FF258
:101E9000EC0ADAE9000ACDE9020A0FF2E00ADAE90F
:101EA000000ACDE9000A38484068C0F381000A9072
:101EB0000A9820B1012804D0022829D103E033492F
:101EC00028E0324926E03048406800F48038B8F510
:101ED000803F09D12D4C2C48406800F40039B9F5F9
:101EE000003F02D1641000E0294C27484068C0F34D
:101EF00083422548406800F0006008B142F01002BB
:101F00000F2A01D2921C00E0521C04FB02F101E0F6
:101F10001E4900BF00BF1C484068C0F3031504A859
:101F2000465D21FA06F318484068C0F3022502A86E
:101F3000465D23FA06FC14484068C0F3C2251DF82C
:101F4000056023FA06F0089037B1012F06D0022F62
:101F500006D0032F0AD106E0099108E0099306E0B4
:101F6000CDF824C003E00898099000E000BF00BF4E
:101F700009980BB0BDE8F08F0000000000000000E1
:101F800001020304060708090010024000127A004B
:101F900000093D00064A02EB9011096800F01F039A
:101FA00001229A401143024B03EB901211607047DB
:101FB00000100240064A02EB9011096800F01F036E
:101FC00001229A409143024B03EB9012116070473B
:101FD00000100240064A02EB9011096800F01F034E
:101FE00001229A401143024B03EB9012116070479B
:101FF0000010024010B504465CB908210D48FFF7F7
:1020000009FD0220FFF766FC08210A48FFF704FDDE
:102010000CE04FF480510848FFF7FCFC0220FFF76A
:1020200059FC4FF480510448FFF7F6FC0520FFF7F8
:1020300051FC10BD00080140000C014070B5054680
:102040000C462846FFF734FC204600F0F1F82846FD
:10205000FFF71CFC0120FFF73DFC70BDF0B5ADF5AE
:10206000057D002431480068401C3049086005A9FE
:1020700008192E490A682EA1FEF7C4F80444002569
:102080000EE02E4951F8250001F036F806460B46C1
:1020900005A9081932462AA1FEF7B4F804446D1CBC
:1020A0000C2DEEDB05A9081927A1FEF7ABF80444B7
:1020B00005A908191D490A6824A1FEF7A3F80444DC
:1020C000002518E0234830F8150030B905A9081993
:1020D00021A1FEF797F804440CE01E4931F81500E1
:1020E00001A9FFF705FE05A9081901AA1CA1FEF721
:1020F00089F804446D1C0C2DE4DB05A9081912A114
:10210000FEF780F804441748006800F0F5FF064623
:102110000B4605A90819324613A1FEF773F80444CB
:1021200005A800F029F80DF5057DF0BD040000209C
:1021300054454D502C256C75000000002C000020EB
:102140002C252E31660000000D0A0000504F532C44
:10215000256C75005C0000202C454D505459000042
:102160002C2573000800002053504545442C252E93
:1021700031660D0A0000000010B50446204600F04C
:102180006FFA10BD10B540F20360FFF703FF4FF484
:10219000C060FFF7FFFE40F20170FFF7FBFE012178
:1021A0001A48FFF7E5FC1023032248211848FFF7DF
:1021B00081FC04210120FFF731FC00221146102090
:1021C000FFF7B8FB1020FFF713FC002202210A20C2
:1021D000FFF79CFD0F4800F0F7F8012247210D485A
:1021E00000F065F94FF6FF710A4800F0E5F80021AC
:1021F000084800F0E7F8074800F054F900200649C5
:102200000860064908600649087010BD00023000E9
:10221000000C0140000400401400002018000020C1
:102220001C000020014908607047000020000020C9
:1022300070B504460025002624E001211548FFF76B
:10224000E9FB04F0800020B102211248FFF7E4FB13
:1022500003E002210F48FFF7DDFB00BF00BF0121B3
:102260000C48FFF7D9FB6806050E80210A48FFF7E6
:1022700077FC08B145F0010500BF00BF6006040E01
:10228000701CC6B2082ED8DB01210248FFF7C2FB42
:10229000284670BD000C01400008014000200021CC
:1022A0002C4A126842F480322A4B1A6000BF401C4C
:1022B000284A126802F4003119B94FF6FF729042B1
:1022C000F5D1244A126802F400320AB900BFFEE7D1
:1022D000204A52681F4B5A601A4652685A601A4682
:1022E000526842F480625A601A46526822F44032C0
:1022F0005A601A46526842F440325A601A4652688E
:10230000154B1A40134B5A601A465268134B1A4326
:10231000104B5A601A46126842F080721A6000BF71
:102320000C4A126802F00072002AF9D0094A526879
:1023300022F00302074B5A601A46526842F002022A
:102340005A6000BF034A526802F00C02082AF9D111
:102350007047000000100240FFFFC3F7000028088C
:1023600010B5FFF79BFF10BD10B5124800684FF481
:102370007A71B0FBF1F4601EB0F1807F01D30120CF
:102380000FE0601E4FF0E02148610F214FF0FF3059
:10239000FFF7C8F800204FF0E021886107200861AE
:1023A000002008B100BFFEE70021481EFFF7BAF881
:1023B00010BD000028000020C162704701460020C7
:1023C000486A70474162704710B504463349601A45
:1023D0008C4244D00CDCB4F1804F1CD030482044F7
:1023E00010B3B0F5806F28D0B0F5006F52D12DE05A
:1023F000B0F5806F3CD0B0F58E3F03D0B0F5923F82
:1024000048D13EE040F20B30FFF7E4FD40F20B30E4
:10241000FFF7D0FD3FE04FF48060FFF7DBFD4FF4A6
:102420008060FFF7C7FD36E040F20140FFF7D2FDC4
:1024300040F20140FFF7BEFD2DE040F20240FFF701
:10244000C9FD40F20240FFF7B5FD24E040F2034031
:10245000FFF7C0FD40F20340FFF7ACFD1BE040F288
:102460000440FFF7B7FD40F20440FFF7A3FD12E080
:1024700040F20540FFF7AEFD40F20540FFF79AFD40
:1024800009E040F20D30FFF7A5FD40F20D30FFF7F7
:1024900091FD00E000BF00BF10BD00000010004033
:1024A00000FCFFBF016841F00101016070478162DB
:1024B000012A03D1436943F00103436170470000DF
:1024C00070B5FFF78FFCB0B13948008898B939482A
:1024D00000883749088037480088401C3549088003
:1024E00035483349486033480088B0F57A7F02DBCD
:1024F00001203049088031493148006800F0CAFEA7
:102500000546002410E02A4830F8340050B128492C
:1025100001EBC4014868294600F088FF244901EB1B
:10252000C4014860601CC4B20C2CECDB2048B0F83D
:10253000580048B11E49C86D002100F077FE03D84D
:1025400000201B49A1F858000B2422E0601E184906
:1025500031F83000D8B1611E154A02EBC10148685C
:10256000002100F063FE12D8114800EBC401601E88
:102570000F4A02EBC00205CA05C10F480C4901EB26
:10258000C40148600021601E094A22F83010601E14
:10259000C4B2002CDADC002407E0054830F834002F
:1025A000084921F81400601CC4B20C2CF5DB70BD86
:1025B000740000200C0000200000C842CDCCCC3DAF
:1025C000080000205C00002010B5044640F20260C4
:1025D000FFF7E0FC40F20E60FFF7DCFC4FF4007305
:1025E000032218211448FFF765FA4FF48063032291
:1025F00004211148FFF75EFA104800F089F82146DF
:102600000E4800F039F800210C4800F0DDF80021F8
:102610000A4800F0F9F80021084800F0E5F8082120
:10262000064800F0E9F80421044800F0D5F8034812
:1026300000F0B6F810BD000000080140003801406D
:1026400010B504462146054800F05EF800BF07219A
:10265000024800F0AAF80028F9D010BD0038014067
:1026600070B50446002503E0605DFFF7E9FF6D1CCF
:10267000605D0028F8D170BD2DE9F04704460D4695
:102680000027B846B94600261D49601A8C421CD066
:1026900006DC1C48204470B1B0F5806F1FD10FE0FC
:1026A000B0F5806F16D0B0F56C4F18D10320FFF74E
:1026B000DFFB074614E00220FFF7DAFB07460FE0D6
:1026C0000220FFF7D5FB07460AE00220FFF7D0FB08
:1026D000074605E00220FFF7CBFB074600E000BFFE
:1026E00000BF07EB5500B0FBF5F64FF6F07006EAB9
:1026F000000806F00F0948EA0900A060BDE8F0876D
:10270000004C004000BCFFBFC1F3080242607047AC
:1027100010B504462049601A8C4228D006DC1F48B8
:10272000204490B1B0F5806F33D117E0B0F5806FE1
:1027300026D0B0F56C4F2CD140F20E30FFF74AFC9A
:1027400040F20E30FFF736FC24E040F21140FFF774
:1027500041FC40F21140FFF72DFC1BE040F212401B
:10276000FFF738FC40F21240FFF724FC12E040F281
:102770001340FFF72FFC40F21340FFF71BFC09E06A
:1027800040F21440FFF726FC40F21440FFF712FC21
:1027900000E000BF00BF10BD004C004000BCFFBF08
:1027A000C16841F40051C160704710B5024602EBA8
:1027B0009110006801F01F040123A340184008B1E4
:1027C000012010BD0020FCE7C26822F4C062C26094
:1027D000C2680A43C26070470A460021C16821F0FE
:1027E00004011143C1607047026922F44052026142
:1027F00002690A43026170470A460021C16821F05C
:1028000008011143C1607047C26822F48052C2605F
:10281000C2680A43C260704770B506460C4615464A
:102820003046FFF745F844F04000FFF701FD002077
:10283000FFF7FEFC2846FFF7FBFC3046FFF726F8C3
:1028400070BD000010B500290AD00878002807D014
:1028500005487844FEF702FA002801D0002010BD98
:102860000248784410BD00008E0D0000860D000067
:1028700021F00042A2F16052B2F5801F01F0004346
:1028800028BFD2F17F6C0BD95FEA001C43EAC20279
:1028900042EB507018BF704728BF20F0010070470E
:1028A000B2F5801FBCBF184670474FEA410C1CF5BB
:1028B000001F02D2084600F0B4BD70B500F0DEFA89
:1028C00000000089FFF7F6BF4FF00040A0F5800040
:1028D0007047000010B591EA030F48BF83F0004332
:1028E00000F12883841A71EB030C05D2121943EB13
:1028F0000C03001B61EB0C01DFF824E14FEA1154DB
:10290000A4EB135C1EEA430F18BF9EEA445F73D02A
:1029100023EA0E03DCF1200E21EA045143F4801374
:1029200032D322FA0CFE10EB0E0023FA0CFE41EB20
:102930000E01CCF1200E03FA0EFE10EB0E0051F149
:102940000001B1F5801FCCF1200E32D201EB045111
:1029500012FA0EF2BDE8104058BF7047401C38BF55
:102960005FEA420218BF7047002814BF20F0010040
:1029700041F100014FEA410313F5001F38BF7047D2
:10298000A1F1C04100F0C8BA012A43EB0302ACF147
:10299000200CDCF11F0E32BF4FF0000E23FA0CF3B7
:1029A00010EB030041EB0451B4EB115FD0D0A1EB6D
:1029B000045101F5801149085FEA300001EB045130
:1029C0000ED350F1000038BF12FA0EFE08D1BDE858
:1029D0001040C9E7401C38BF5FEA4202CAD1C3E7D2
:1029E000BDE810404FEA410313F5001F38BF7047A0
:1029F000A1F1C04100F090BA9EEA445F08D011EA0C
:102A00005E0FBDE8104004BF01F000410020704798
:102A1000BDE8104070B500F031FA00BF64FBBE3E67
:102A20000000E0FF2DE9C04130B4DFF8A0C23CEA6D
:102A3000111418BF3CEA131400F0EC8081EA03057E
:102A40001CEA111444EAD57418BF1CEA131500F0EF
:102A5000C780A4EB05044FF0004545EAC12145EAD3
:102A6000C32341EA505143EA525304F17F7499421F
:102A700004F500344FEAC0204FEAC22208BF90425A
:102A800000F09C804FEA13650FF24016765D4FEA26
:102A9000134506FB05F7C7F1807706FB07F74FEAFA
:102AA000D737A7FB03687642C8F58038A7FB06CE68
:102AB00038BFA8F1010807FB08E64FF0000EA6FB9F
:102AC000028CE6FB03CEDCF1000CCEF1004E38BFE9
:102AD000AEF1010EA6FB0C584FF000074FF00005B9
:102AE000E6FB0E87A1FB08C6A0FB07CE16EB0E0681
:102AF00045F10005E1FB076515F1E04E7EBFA4F549
:102B000080345FEA46066D4116F1800745F1000505
:102B10004FEA17274FEA066647EA0567A6F1DE4641
:102B2000B6F1805F4FEA15251FD9384624F0010C15
:102B300005EBC471BCF1FE6F01EB0C1102D8F0BCC7
:102B4000BDE8008124425CBF01F5801E9EEAC47F7F
:102B500002D4F0BCBDE80081244238D4F0BCA1F11D
:102B6000C041BDE8004100F0D7B94FEAD22242EAA5
:102B700043524FEAD323A7FB02864FEAD02040EA14
:102B8000415007FB03661EEA0E0F4FEAD12105FBF9
:102B9000026658BFA6EB0056B6EB00564FEA520E3F
:102BA0004EEAC37E18EB0E0E56EB530EBDD518EB56
:102BB00002085E417F1C55F10005B6E74FF4801511
:102BC0004FF000074FF000064FF00008ADE7F0BCF3
:102BD0004FF0000001F1C04101F00041BDE800816B
:102BE00011EA0C1F0CEA131500D00CE013EA0C1FBD
:102BF00000F025804FF00000F0BC81EA030101F0F5
:102C00000041BDE80081F0BCBDE8004181EA03015C
:102C100000F082B9F0BCBDE8004170B500F02EF9BB
:102C2000097EFC3E00F007B881EA03014FF0000086
:102C300001F00041704781EA030100F06DB9F0BC7A
:102C4000BDE800414FF0000021497047FFFDFBF94E
:102C5000F7F5F4F2F0EEEDEBE9E8E6E4E3E1E0DECF
:102C6000DDDBDAD8D7D5D4D3D1D0CFCDCCCBCAC841
:102C7000C7C6C5C4C2C1C0BFBEBDBCBBBAB9B8B768
:102C8000B6B5B4B3B2B1B0AFAEADACABAAA9A8A85B
:102C9000A7A6A5A4A3A3A2A1A09F9F9E9D9C9C9B29
:102CA0009A999998979796959594939392919190D4
:102CB0008F8F8E8E8D8C8C8B8B8A89898888878765
:102CC0008685858484838382828181800000FF07DA
:102CD0000000F87F10F0004248BF4042B0FA80F395
:102CE00010FA03F10AD0C3F11D0303F580634FEA24
:102CF000415002EB035202EBD12170474FF000002C
:102D00007047B0FA80F310FA03F10AD0C3F11D0343
:102D100003F580634FEA41504FEA035202EBD121A1
:102D200070474FF000007047DFF848C170B51CEAEB
:102D3000111E1EBF1CEA13159EEA0C0F95EA0C0F1C
:102D400000F06F8081EA030423EA4C134EEAD47E3C
:102D500021EA4C1141F4801143F48013AE44A1FBED
:102D6000024CA0FB0365AEF17F7E361955EB0C05D6
:102D7000A1FB034C4CF10003A0FB021C16EB0C065C
:102D8000654153F10003094218BF46F0010613F4F0
:102D9000007F0BD14FEA03314FEA0530340341EA9B
:102DA000155140EA16506FF003020AE04FEAC321C2
:102DB0004FEAC520F40241EA555140EA56506FF0FF
:102DC000020202EB2E4201EB025585EACE710AD0D7
:102DD0005FEA440C18BF24F0004450F1000041F1B8
:102DE000000120EAD47040F2FE7C624500D270BD42
:102DF000A84214BF4FF080444FF04044002E08BF5B
:102E00000024BEF1806FA8BFA1F1C041BDE87040B1
:102E100080F282804FF0000001F1C04101F00041DA
:102E200070479EEA0C0F0CEA131518BF95EA0C0FB9
:102E300006D04FF0000081EA030E0EF0004170BD95
:102E400000F01CF88900013E00F007B800F009B856
:102E50004FEA430C5FEA5C5C08D081EA030100F0B2
:102E60005BB84FEA410C5FEA5C5CF6D14FF00000C2
:102E7000014970470000FF070000F87F0EF1020EC5
:102E80002EF0030E5EF8046B364205D4012A43EBA4
:102E9000030515F5001F12D8012841EB010C1CF5A4
:102EA000001F0CD80ED14FEAD17C15F5001F0CEB9A
:102EB0004C0C0CF1020C08BF4CEBD37C04E04FF03F
:102EC000080C01E04FEAD37C0CEB4C0526FA05F622
:102ED00006F00706B6F1040C06D20EEB860CBDE830
:102EE00070404CF0010C6047DFE80CF0090B020267
:102EF0004FF000414FF00000A1F5002170BD1946D0
:102F00001046012851EB010418BFD4F5001484BF0A
:102F1000002001F0004170BD0808A0F500114FEA43
:102F20003101704710B591EA030F48BF83F00043A9
:102F30003FF5D8AC841A71EB030C07D212198CF050
:102F4000004C43EB0C03001B61EB0C01DFF8A4E128
:102F50004FEA1154A4EB135C1EEA430F18BF9EEA1C
:102F6000445F00F0B08023EA6E03524221EA04512C
:102F7000C3EB6E0338BF5B1EDCF1200E25D322FAB3
:102F80000CFE10EB0E0043FA0CFE41EB0E01CCF1EF
:102F9000200E03FA0EFE10EB0E0051F10001CCF1F1
:102FA000200E29D412FA0EF201EB0451BDE81040B4
:102FB00058BF7047401C1CBFB2F1004F704700283B
:102FC0000CBF491C20F00100704712EB020E43EBCE
:102FD000030218BF4FF0010E4EEA4202ACF1200C82
:102FE000DCF11E0E54D943FA0CFE10EB0E0051F129
:102FF000FF31CCF11E0ED5D50EF1010E12FA0EFEE8
:10300000404141EB010101EB445C5FEA5C5C10D99B
:1030100010EBDE7001EB045138BFBEF1004FBDE88C
:10302000104018BF704700280CBF491C20F0010059
:10303000704730D24FEAD42C11F5001124F400640B
:103040001BD0B1FA81F20B3AA41AA41ED2F12003CC
:10305000914030FA03F31943904001EBCC71002CFE
:1030600001EB0451BDE81040A8BF704701F1C04119
:103070004FF0000001F000417047B0FA80F310FA01
:1030800003F100D110BDE41A173C4805C90AE4E772
:1030900001EB045110BD491001EB0451BDE8104093
:1030A0004FEA300002E04FF0000170474A0008BFCD
:1030B0000042F8D0B2F5001F28BF704701F0004170
:1030C0004FF0000070479EEA445F07D011EA5E0FA0
:1030D000BDE8104004BF002100207047BDE810404B
:1030E00070B5FFF7CBFE00BF40DFF63E83F0004136
:1030F000104670470000E0FF43004FEAD30C4FEA50
:103100003C0C43401FBF40070CF1605113F0FE4FD1
:1031100070471CF0006F03D100200CF00041704795
:103120000CF0004343EA507010B540EACC0000F0C8
:1031300032F900BF000000924FEA0001FFF7ECBE39
:103140004FF000414FF00000A1F500217047000052
:1031500090EA010F48BF81F0004100F16E81421AF0
:103160003CBF801A89184FEAD0524FF07F4C1CEABE
:10317000410FA2EBD15318BF9CEA026F00F03B80D5
:103180004FF0004C4CEA00204CEA012121FA03FCEC
:1031900010EB0C0C1ED202F1FF325FEA1C2040EB58
:1031A000C25038BF70471CF07F0F4FEA400C18BF69
:1031B000BCF17F4F38BF7047C3F12003994008BF6F
:1031C00020F00100BCF17F4F38BF7047A0F1C04034
:1031D00000F027B94FEA3C00000A40EBC25028BF7C
:1031E0001CF0FF0F4FEA400CE6D018BFBCF17F4F38
:1031F00038BF7047EAE79CEA026F05D010EA5C0F1F
:1032000008BF00F00040704710B500F0C4F800BFE0
:1032100064FBBE3E401058BFC0F14040491058BF4B
:10322000C1F140418142EFF30080704750EA010C48
:1032300000F113801CF5000F58BFBCF5000F01D43E
:103240008842704707D710F5000F58BF11F5000FDF
:1032500015D488427047894270471CF5000F04D589
:10326000BCF5000FF7D5814270474FF0807C1CEB16
:10327000400F38BF1CEB410F01D28142704710B59F
:1032800000F089F8922449004FF000504FF080512F
:10329000FFF7C0BF4FF47F0C1CEAD0121EBF1CEA20
:1032A000D11392EA0C0F93EA0C0F00F0478090EADA
:1032B000010F48BF42F480724FF0004C4CEA0020EE
:1032C0004CEA012102EB0302A0FB0113A2F500026C
:1032D000002918BF43F001035B0028BF4FEA330306
:1032E00042EB22425FEA132C4CEBC2502EBFBCEBE8
:1032F000436FB2F57C0F70474FEA036CBCF1004F8F
:1033000008BF20F00100B2F57C0F38BF70470BD525
:1033100082F0FF0212F5803FC8BF704700F1C04045
:10332000D8BF00F00040704700F5000C5FEA4C0C7D
:1033300048BF7047B0F1C04000F073B890EA010F89
:103340000CEAD11348BF42F48072624538BF63452E
:1033500004D280EA010000F00040704710B500F090
:103360001AF800BF8900013E00F007B800F009B864
:103370005FEA410C5FEA1C6C08D080EA010000F0B3
:1033800050B85FEA400C5FEA1C6CF6D14FF0004089
:10339000A0F5800070470EF1020E2EF0030E5EF8CD
:1033A000044B244204D44FEA4102B2F17F4F11D8BA
:1033B0004FEA4003B3F17F4F0CD80ED14FEAD07CD7
:1033C000B2F17F4F0CEB4C0C0CF1020C08BF4CEB34
:1033D000D17C04E04FF0080C01E04FEAD17C0CEB0B
:1033E0004C0324FA03F404F00704B4F1040C06D2ED
:1033F0000EEB840CBDE810404CF0010C6047DFE898
:103400000CF0070802024FF00040A0F5800010BD4C
:103410000846420018BFD2F1807288BF00F0004019
:1034200010BDFF2141EAD050C005704790EA010F5E
:1034300048BF81F000413FF592AE421A04D882F0B5
:103440000042A0EB020011444FEAD0524FF07F4CF3
:103450001CEA410FA2EBD15318BF9CEA026F4AD07D
:103460004FF0004C4CEA00204CEA012121FA03FC09
:10347000B0EB0C0C0FD412F0FE0F36D05FEA4C000C
:103480001DD5001240EBC25038BF70471CF03F0FF3
:1034900018BF70470BE0A2F101025FEA1C2040EB6D
:1034A000C25038BF70471CF07F0F18BF7047C3F180
:1034B0002003994014BF401E20F00100704780088F
:1034C0004FEA122308BF7047B0FA80FCA2EB0C024F
:1034D000CCF1280C60FA0CF093EA122F04BF00EB39
:1034E000C25070474FEAC3707047130A5FEADC109E
:1034F00008BF7047F6E79CEA026F04D010EA5C0F41
:1035000008BF0020704710B5FFF745FF40DFF63ECB
:1035100081F000407047FDF70EB90400000800007C
:103520000000000000020001000010000240000046
:10353000000000A00000000005400000000000C8DE
:10354000000000000C4000000000409C0000000053
:10355000194000000020BCBE000000003440000004
:10356000BFC91B8E00000004B5400000504BCFD0F7
:103570006607E2CF010000006C4100003E8251AAC4
:10358000DFEEA73401000000D9420000DCB5A0E264
:103590003A301F97FFFFFFFFB4450000FD25A0C88C
:1035A000E9A3C14FFFFFFFFFFF3F000000000080C5
:1035B00000000000FF3F000000000080000000004D
:1035C000FC350008000000202C000000400100082D
:1035D000283600082C0000200C0700005C010008C1
:1035E0001C00000043000000F8FFFFFF0C0000007B
:1035F0000E0000000F0000002E0000000000000080
:10360000E8030000000000000100000000000000CE
:103610000000000000000000000000000000803FEB
:083620000000000000F36F063A
:04000005080001C529
:00000001FF
