:020000040800F2
:1000000068060020A9010008AD040008A504000846
:10001000A90400089F040008B905000800000000BA
:10002000000000000000000000000000DB040008E9
:10003000A304000800000000D9040008DD04000843
:10004000C3010008C3010008C3010008C301000880
:10005000C3010008C3010008C3010008C301000870
:10006000C3010008C3010008C3010008C301000860
:10007000C3010008C3010008C3010008C301000850
:10008000C3010008C3010008C3010008C301000840
:10009000C3010008C3010008C3010008C301000830
:1000A000C3010008C3010008C3010008C301000820
:1000B000C3010008C3010008C3010008C301000810
:1000C000C3010008C3010008C3010008C301000800
:1000D000C3010008C3010008C3010008C3010008F0
:1000E000C3010008C3010008C301000800000000AC
:1000F0000000000000000000000000000000000000
:10010000C301000800F002F800F03FF80AA090E8F0
:10011000000C82448344AAF10107DA4501D100F0C2
:1001200034F8AFF2090EBAE80F0013F0010F18BF50
:10013000FB1A43F001031847880E0000A80E0000C8
:10014000103A24BF78C878C1FAD8520724BF30C803
:1001500030C144BF04680C607047000000230024D5
:1001600000250026103A28BF78C1FBD8520728BFC7
:1001700030C148BF0B607047642900F049800020FF
:1001800070471FB51FBD10B510BD00F052F91146E4
:10019000FFF7F7FF00F092FB00F070F903B4FFF7F0
:1001A000F2FF03BC00F074F9094880470948004792
:1001B000FEE7FEE7FEE7FEE7FEE7FEE7FEE7FEE717
:1001C000FEE7FEE704480549054A064B7047000074
:1001D000E50400080501000868000020680600200A
:1001E00068020020680200200FB41CB5074B06AA65
:1001F0007B4469460090059800F003F900206946A9
:1002000000F012F91CBC5DF814FB00003502000080
:100210002DE9F0410646002410687529314616A5DF
:1002200010D0AFF30080002802DA404213A507E0A7
:1002300031688A0701D512A502E0490704D511A546
:10024000012401E0AFF3008000210A2206F1240717
:1002500009E0B0FBF2FCB0FBF2F302FB1C00303013
:1002600078541846491C0028F3D123462A463046C4
:10027000BDE8F04100F067B8000000002D0000006C
:100280002B000000200000002DE9F0410F4605463C
:10029000002028622846E968884770B3252805D0E1
:1002A000D5E901219047286A401CF2E7E968284611
:1002B000002688476C2804460AD0682C08D04C2CAD
:1002C00035D06A2C31D0742C31D07A2C2FD016E056
:1002D000E968064628468847B042044608D16C2E95
:1002E00023D04FF480662846E9688847044606E034
:1002F0006C2E03D04FF4807601E01EE04026E4B17E
:10030000A4F14100192802D8203446F400663A4688
:10031000214628462E60FFF72FFF60B1012808D044
:10032000FF1D27F007070837B4E78026DBE7002624
:10033000D9E73F1DAEE72046B2E7286ABDE8F08165
:100340007047704770472DE9F0470D469946924631
:10035000044600F124080168880604D5E06921F00C
:100360001001216000E00120A84201DD471B00E0F0
:100370000027A1697A1902EB0900081AA061207808
:10038000C00602D42046AFF30080002608E0D4E97E
:1003900001211AF806009047206A401C761C206252
:1003A0004E45F4DB2078C0060AD52046AFF3008026
:1003B00006E0D4E9012130209047206A401C2062E9
:1003C000381EA7F10107F4DC07E0D4E9012118F891
:1003D00005009047206A401C2062281EA5F10105F7
:1003E000F3DC2046AFF300802078000602D502201F
:1003F000BDE8F0870120FBE701694A1C026108782B
:10040000704700B58FB0CDE9013100210591054954
:100410007944CDE9031011466846FFF735FF0FB068
:1004200000BD0000E5FFFFFF0A6802F8010B0A604B
:100430007047754600F028F8AE46050069465346F9
:1004400020F00700854618B020B5FFF7BBFEBDE8D9
:1004500020404FF000064FF000074FF000084FF02B
:10046000000B21F00701AC46ACE8C009ACE8C009BC
:10047000ACE8C009ACE8C0098D4670470446AFF34C
:1004800000802046FFF78AFE0048704708000020E1
:1004900001491820ABBEFEE726000200704700BFEE
:1004A000FEE7704700BFFEE700BFFEE770470000B1
:1004B00010B5002807DA0A07140E054A00F00F03EA
:1004C0001B1FD45403E00A07130E024A135410BD35
:1004D00018ED00E000E400E07047704710B500F050
:1004E00065F910BD08B53048006840F001002E499C
:1004F000086000BF2C48006800F002000028F9D016
:1005000000BF2948406840F080002749486000202B
:10051000009002E00098401C009000985028F9D309
:100520002148406840F090001F494860002000903A
:1005300002E00098401C009000985028F9D300BFBA
:100540001948406820F003001749486008460068D1
:100550001649084014490860084640681449084094
:100560001149486008460068104908400E49086073
:100570000846006820F480200860084640680D495D
:10058000084009494860084600680849084006498B
:1005900008604FF41F00886000F0A8FB00214FF0B6
:1005A000006000F0F9F908BD00100240FFFFF6FE00
:1005B0000C00FFE8FFFF00F700BFFEE710B540F2B8
:1005C000026000F087FA40F2036000F083FA012332
:1005D000032210213B4800F013F9022303221021CB
:1005E000384800F00DF9802303220421364800F03A
:1005F00007F94FF4806303221021324800F000F91C
:10060000082303221021304800F0FAF804230322C3
:1006100019462C4800F0F4F82023032210212A4820
:1006200000F0EEF84FF4805303221021254800F02B
:10063000E7F8402303220421234800F0E1F80020DA
:1006400000F086F8012000F083F8002000F072FA34
:100650000621002000F092FA0221002000F08EFA1C
:100660000821002000F08AFA03221146002000F041
:1006700091FC06220421002000F08CFC0A220521B6
:10068000002000F087FC012000F054FA0621012030
:1006900000F074FA0221012000F070FA0821012014
:1006A00000F06CFA03221146012000F073FC0622D0
:1006B0000421012000F06EFC0A220521012000F037
:1006C00069FC10BD000C0140000801402DE9F0411B
:1006D000804600BF404600F075F80028FAD040463A
:1006E00000F048F8122000F069FAFF2000F066FAE6
:1006F0000546FF2000F062FA0646FF2000F05EFA91
:100700000746404600F024F8280440EA062040EA64
:10071000070404F4000008B144F07F442046BDE81B
:10072000F0812DE9F04105460C46012000EB440024
:10073000C6B26006070E47EA0610C2B2022128467A
:1007400000F028FC022000F027F8BDE8F08100004E
:1007500010B504462CB94FF48061044800F04EF8FF
:1007600003E02021024800F049F810BD000C0140D0
:100770000008014010B504462CB94FF480610448CC
:1007800000F03AF803E02021024800F035F810BDEF
:10079000000C0140000801400349086000BF024905
:1007A00009680029FBD17047000000200448006858
:1007B00020B103480068401E0149086070470000EE
:1007C0000000002010B5044644B90421084800F098
:1007D0006DF808B9012010BD0020FCE74021054854
:1007E00000F064F808B90120F5E70020F3E7000005
:1007F000000C0140000801404161704701617047F1
:10080000F0B5044616460025002201F00F0501F060
:10081000100707B1354300201EE0012787401F4025
:10082000C7B122684FEA800C0F2707FA0CF7BA43CA
:10083000870005FA07F73A43282904D101278740A2
:100840001F40676105E0482903D1012787401F4009
:1008500027612260471CB8B20828DED3082022E0B6
:10086000012787401F40E7B16268A0F108074FEAFF
:10087000870C0F2707FA0CF7BA43A0F10807BF004F
:1008800005FA07F73A43282904D1012787401F407A
:10089000676105E0482903D1012787401F40276190
:1008A0006260471CB8B21028DAD3F0BD02469068E7
:1008B000084008B1012070470020FCE700F01AFA58
:1008C0004FF4165000F03EFAFFF778FE26A000F035
:1008D00085FA47E000241AE021460020FFF721FFB7
:1008E0000020FFF7F3FE054624A000F077FA04F19C
:1008F0003001C8B200F062FA21A000F06FFA284679
:1009000000F04CF91FA000F069FA601CC4B2062C7C
:10091000E2DB1DA000F062FA00241AE0214601206B
:10092000FFF7FFFE0120FFF7D1FE054617A000F0FC
:1009300055FA04F13001C8B200F040FA10A000F0FE
:100940004DFA284600F02AF90EA000F047FA601C84
:10095000C4B2062CE2DB0EA000F040FA4FF4FA70AD
:10096000FFF71AFFB6E7000044494646204D4F44C2
:100970004520313243480D0A0000000041000000CC
:100980003D000000202000000D0A00004200000091
:100990000D0A0D0A00000000034A0A400243034BFF
:1009A0001A60BFF34F8F704780FFFF1F08ED00E014
:1009B0002DE9F04F8BB00746002009903EA090E84B
:1009C000004CC068CDE905BECDF810A007900FF22D
:1009D000EC0ADAE9000ACDE9020A0FF2E00ADAE9E4
:1009E000000ACDE9000A38484068C0F381000A9047
:1009F0000A9820B1012804D0022829D103E0334904
:100A000028E0324926E03048406800F48038B8F5E4
:100A1000803F09D12D4C2C48406800F40039B9F5CD
:100A2000003F02D1641000E0294C27484068C0F321
:100A300083422548406800F0006008B142F010028F
:100A40000F2A01D2921C00E0521C04FB02F101E0CB
:100A50001E4900BF00BF1C484068C0F3031504A82E
:100A6000465D21FA06F318484068C0F3022502A843
:100A7000465D23FA06FC14484068C0F3C2251DF801
:100A8000056023FA06F0089037B1012F06D0022F37
:100A900006D0032F0AD106E0099108E0099306E089
:100AA000CDF824C003E00898099000E000BF00BF23
:100AB00009980BB0BDE8F08F0000000000000000B6
:100AC00001020304060708090010024000127A0020
:100AD00000093D00064A02EB9011096800F01F036F
:100AE00001229A401143024B03EB901211607047B0
:100AF00000100240064A02EB9011096800F01F0343
:100B000001229A409143024B03EB9012116070470F
:100B100000100240064A02EB9011096800F01F0322
:100B200001229A401143024B03EB9012116070476F
:100B30000010024010B504465CB908210D48FFF7CB
:100B40005BFE0220FFF728FE08210A48FFF756FE49
:100B50000CE04FF480510848FFF74EFE0220FFF7EB
:100B60001BFE4FF480510448FFF748FE0520FFF7B5
:100B700013FE10BD00080140000C014070B5054691
:100B80000C462846FFF7F6FD204600F017F82846E9
:100B9000FFF7DEFD0120FFF7FFFD70BD10B586B049
:100BA0000446224604A101A8FFF71EFB01A800F09D
:100BB00015F906B010BD0000256C640070B5044640
:100BC0000025002624E001211548FFF715FE04F05A
:100BD000800020B102211248FFF710FE03E002213D
:100BE0000F48FFF709FE00BF00BF01210C48FFF7C7
:100BF00005FE6806050E80210A48FFF757FE08B17A
:100C000045F0010500BF00BF6006040E701CC6B2AF
:100C1000082ED8DB01210248FFF7EEFD284670BD03
:100C2000000C014000080140002000212C4A1268FD
:100C300042F480322A4B1A6000BF401C284A1268D6
:100C400002F4003119B94FF6FF729042F5D1244AEF
:100C5000126802F400320AB900BFFEE7204A526867
:100C60001F4B5A601A4652685A601A46526842F43C
:100C700080625A601A46526822F440325A601A461C
:100C8000526842F440325A601A465268154B1A4074
:100C9000134B5A601A465268134B1A43104B5A6052
:100CA0001A46126842F080721A6000BF0C4A12683D
:100CB00002F00072002AF9D0094A526822F00302B9
:100CC000074B5A601A46526842F002025A6000BF4F
:100CD000034A526802F00C02082AF9D1704700005A
:100CE00000100240FFFFC3F70000280810B5FFF70F
:100CF0009BFF10BD10B5124800684FF47A71B0FB2D
:100D0000F1F4601EB0F1807F01D301200FE0601E7E
:100D10004FF0E02148610F214FF0FF30FFF7C8FB93
:100D200000204FF0E021886107200861002008B111
:100D300000BFFEE70021481EFFF7BAFB10BD000010
:100D40000400002010B5044640F20260FFF7C2FE26
:100D500040F20E60FFF7BEFE4FF40073032218212D
:100D60001448FFF74DFD4FF480630322042111481E
:100D7000FFF746FD104800F089F821460E4800F0C4
:100D800039F800210C4800F0DDF800210A4800F095
:100D9000F9F80021084800F0E5F80821064800F0BD
:100DA000E9F80421044800F0D5F8034800F0B6F84B
:100DB00010BD0000000801400038014010B5044695
:100DC0002146054800F05EF800BF0721024800F008
:100DD000AAF80028F9D010BD0038014070B50446CB
:100DE000002503E0605DFFF7E9FF6D1C605D0028F2
:100DF000F8D170BD2DE9F04704460D460027B846EE
:100E0000B94600261D49601A8C421CD006DC1C48DD
:100E1000204470B1B0F5806F1FD10FE0B0F5806F46
:100E200016D0B0F56C4F18D10320FFF7C1FD07466F
:100E300014E00220FFF7BCFD07460FE00220FFF799
:100E4000B7FD07460AE00220FFF7B2FD074605E0BE
:100E50000220FFF7ADFD074600E000BF00BF07EB33
:100E60005500B0FBF5F64FF6F07006EA000806F004
:100E70000F0948EA0900A060BDE8F087004C004077
:100E800000BCFFBFC1F308024260704710B50446C2
:100E90002049601A8C4228D006DC1F48204490B1BB
:100EA000B0F5806F33D117E0B0F5806F26D0B0F584
:100EB0006C4F2CD140F20E30FFF72CFE40F20E307A
:100EC000FFF718FE24E040F21140FFF723FE40F246
:100ED0001140FFF70FFE1BE040F21240FFF71AFE31
:100EE00040F21240FFF706FE12E040F21340FFF717
:100EF00011FE40F21340FFF7FDFD09E040F21440FF
:100F0000FFF708FE40F21440FFF7F4FD00E000BFD9
:100F100000BF10BD004C004000BCFFBFC16841F4E1
:100F20000051C160704710B5024602EB9110006895
:100F300001F01F040123A340184008B1012010BD97
:100F40000020FCE7C26822F4C062C260C2680A43A3
:100F5000C26070470A460021C16821F004011143B4
:100F6000C1607047026922F44052026102690A437B
:100F7000026170470A460021C16821F0080111434F
:100F8000C1607047C26822F48052C260C2680A43DE
:100F9000C260704770B506460C4615463046FFF7EE
:100FA000E9FB44F04000FFF709FE0020FFF706FED2
:100FB0002846FFF703FE3046FFF7CAFB70BD00006E
:100FC000E00F0008000000200800000040010008B9
:100FD000E80F000808000020600600005C0100081F
:080FE0000000000000F36F06A1
:04000005080001A945
:00000001FF
